:020000040800F2
:10000000A008002089010008910100089301000860
:100010009501000897010008990100080000000000
:100020000000000000000000000000009B0100082C
:100030009D010008000000009F010008A1010008C8
:10004000A3010008A3010008A3010008A301000800
:10005000A3010008A3010008B5030008A3010008DC
:10006000A3010008A3010008A3010008A3010008E0
:10007000A3010008A3010008A3010008A3010008D0
:10008000A3010008A3010008A3010008A3010008C0
:10009000A3010008A3010008A3010008A3010008B0
:1000A000A3010008A3010008A3010008A3010008A0
:1000B000910D00082D0E000800000000A3010008AB
:1000C000A30100080000000000000000A3010008D8
:1000D0000000000051110008A3010008000000000A
:1000E000A3010008A3010008A301000800F002F822
:1000F00000F03AF80AA090E8000C82448344AAF188
:100100000107DA4501D100F02FF8AFF2090EBAE885
:100110000F0013F0010F18BFFB1A43F0010318473B
:10012000C8190000E8190000103A24BF78C878C147
:10013000FAD8520724BF30C830C144BF04680C60ED
:10014000704700000023002400250026103A28BF35
:1001500078C1FBD8520728BF30C148BF0B60704739
:100160001FB51FBD10B510BD00F079F81146FFF79F
:10017000F7FF01F015F900F097F803B4FFF7F2FF6D
:1001800003BC01F0B9F8000009488047094800475E
:10019000FEE7FEE7FEE7FEE7FEE7FEE7FEE7FEE737
:1001A000FEE7FEE704480549054A064B7047000094
:1001B000D50C0008ED000008A0020020A0080020D7
:1001C000A0040020A0040020704710B5431C02E0EA
:1001D00010F8011B71B18107FAD14FF0013202C84A
:1001E0008C1A8C4314EAC211F9D0C01A0A0603D043
:1001F000C01E10BDC01A10BD0A0401D0801E10BD63
:100200000902FCD0401E10BD4FF0000200B513469D
:1002100094469646203922BFA0E80C50A0E80C5026
:10022000B1F12001BFF4F7AF090728BFA0E80C50D7
:1002300048BF0CC05DF804EB890028BF40F8042BD0
:1002400008BF704748BF20F8022B11F0804F18BF3D
:1002500000F8012B7047704770477047704775462C
:1002600000F028F8AE4605006946534620F0070026
:10027000854618B020B5FFF795FFBDE820404FF048
:1002800000064FF000074FF000084FF0000B21F080
:100290000701AC46ACE8C009ACE8C009ACE8C0094D
:1002A000ACE8C0098D4670470446AFF30080204695
:1002B000FFF763FF0048704740020020044B012213
:1002C0008240186809B1104300E0904318607047FD
:1002D0000074004010B586B00121042000F0EEFB50
:1002E0000121480700F0D2FB1020ADF810000320D8
:1002F0008DF8120000248DF8134004A9084800F07E
:100300007BF83C20CDE90004029469460020039468
:1003100000F008F801210020FFF7D0FF06B010BD63
:100320000008014030B5084C236840F6FE72824058
:100330009343D1E900252A43D1E902510D432A43D1
:1003400082401A43226030BD00740040034A08B561
:10035000104408300090016008BD000000740040A7
:100360000209054B012090400029196801D0014382
:1003700000E08143196070470474004010B50C21FF
:1003800001F074FB01F0A4FA4FF06632084B01F063
:10039000F3F801F0BFF801F0CDFA81B20020FFF7C9
:1003A000D5FF0121BDE810400020FFF7D9BF0000B4
:1003B00066660A4010B5012000F00EF8002804D04F
:1003C000BDE81040012000F001B810BD01490860EF
:1003D0007047000014040140064A014600201268DC
:1003E000044B0A4014331B680B4202D0002A00D091
:1003F0000120704700040140F0B5CC78002204F0E1
:100400000F03E40601D58C7823430C784FF00F0CD2
:1004100014F0FF0F4FF0010E1BD005680E880EFA86
:1004200002F42640A64210D196000CFA06F725EAFF
:10043000070703FA06F5CE783D43282E02D0482E52
:1004400002D002E0446100E00461521C082AE5D3B6
:1004500005600A88FF2A1CD94468002202F10806B8
:100460000EFA06F50E882E40AE420ED196000CFA1A
:1004700006F7BC4303FA06F7CE783C43282E00D19A
:100480004561CE78482E00D10561521C082AE5D37B
:100490004460F0BD416170470161704730B50B4C5D
:1004A000208801040FD5C0F30B0300200849094A36
:1004B0005B1C03E00D5C1554401C80B29842F9D3DC
:1004C0000020208030BDFE2030BD0000AE000020A6
:1004D00078010020B000002030B5FFF7DFFF0028D2
:1004E00033D12E4900222E480B78012B08D0022B45
:1004F0002BD142788078C2EB02221044486020E081
:1005000000244A60035D2E2B0CD0641CE4B2052C41
:10051000F8D34DB1012D0BD0022D17D0032D26D0CD
:1005200048680EE02546F4E74078303A104407E08A
:10053000827800786FF02F03303800EB800012E0F3
:1005400048604FF4FA725043886030BD0278C37837
:10055000303A02EBC20404EB021203EB8202407851
:10056000104B00EB800003EB40001044E8E70278FA
:100570000379303A02EB4204C4EBC21203EBC2032C
:10058000427880786424624300EB800002EB4000F4
:100590001844A0F5A050D038D2E700001400002085
:1005A000B0000020F0FDFFFF38B50121082000F069
:1005B00085FAC020ADF8000010208DF8030003205C
:1005C000054C8DF8020069462046FFF715FFC02153
:1005D0002046FFF761FF38BD000C01402DE9F041D6
:1005E00005461648016821F070410160016841F03C
:1005F00040510160124E0027C6F898713C464FF0FA
:100600000108280602D5C6F89C8101E0C6F89C7155
:100610006806050E022000F0A9FEC6F898810220A7
:1006200000F0A4FEC6F89871022000F09FFE641C42
:10063000E4B2082CE5D3BDE8F0810000000C0140D5
:100640000080214270B50D48016821F070410160C1
:10065000016841F040510160094C0120C4F89C013F
:10066000C4F89801042004F5CC7400F07FFE002546
:100670006560042000F07AFE256070BD000C01402A
:10068000008021420E4810B5016821F070410160E0
:10069000016841F0405101600A4C0020C4F8980103
:1006A000C4F89C01042004F5CC7400F05FFE012026
:1006B00020606060BDE81040042000F057BE0000DC
:1006C000000C01400080214270B5134800240168ED
:1006D00021F070410160016841F0004101600F4D5F
:1006E0000126C5F89C61304600F040FEC5F89861CF
:1006F000012000F03BFE07E0641CE4B2FA2C03D9B1
:10070000FFF7C0FF012070BDD5F81C010028F3D110
:10071000C5F8980170BD0000000C01400080214226
:1007200000B587B018216846FFF76EFD00206A46C5
:10073000FF211154401CC0B21428FAD31422694678
:10074000002000F02DF907B000BD00B587B01821DA
:100750006846FFF759FD14226946002000F020F991
:1007600007B000BD0B220249002000F019B90000BB
:100770009300002070B528B100F012F8BDE8704079
:10078000FFF7F0BF054D6C1F2978E07800F027F9DE
:100790002978207900F023F9F0E700008900002093
:1007A0002DE9FC470446002000900190052269468F
:1007B000162000F0F5F8404884424FD23F4E4110D9
:1007C0000A25771F42F210704FF064084FF47A79CF
:1007D0008C4231D349420C44B4FBF0F0B0FBF5F14C
:1007E00005FB1100315C387800F0F9F8B4FBF9F042
:1007F000B0FBF5F105FB1100315C787800F0EFF803
:10080000B4FBF8F0B0FBF5F105FB1100315CB878F2
:1008100000F0E5F8B4FBF5F0B0FBF5F105FB1100D5
:10082000315CF87800F0DBF8B4FBF5F005FB104024
:10083000305C40F008010EE042F20F718C420FD99B
:10084000B4FBF0F0B0FBF5F105FB1100315C38783A
:1008500000F0C5F806E0387900F0C1F8BDE8FC8783
:100860004C450AD3B4FBF9F0B0FBF5F105FB1100E0
:10087000315C787800F0B3F801E0632C0AD9B4FB5E
:10088000F8F0B0FBF5F105FB1100315CB87800F031
:10089000A6F801E0092C09D9B4FBF5F0B0FBF5F19D
:1008A00005FB1100315CF87800F099F8B4FBF5F025
:1008B00005FB1040315CCEE7400D030089000020AD
:1008C0000B220249002000F06BB800009E000020BF
:1008D00010B5FFF765FFBDE81040FFF7F1BF00005E
:1008E00038B50121082000F0E9F84FF49070ADF818
:1008F000000010208DF803000320084C8DF8020042
:1009000069462046FFF778FDA1152046FFF7C4FD94
:1009100020212046FFF7C0FD38BD0000000C01403B
:100920004FF4A06000F032B830B50F23C2780178E0
:100930000125F2B1144A126801F1E02102F4E062EB
:10094000C2F5E062120AC2F10404D3404278A24028
:1009500084781C401443220181F80024007800F0C0
:100960001F018D404009800000F1E020C0F80051D7
:1009700030BD01F01F0085404809800000F1E020F3
:10098000C0F8805130BD00000CED00E00249084382
:1009900002490860704700000000FA050CED00E015
:1009A00070B5064614460D46602000F025F806F0A6
:1009B0003F0022462946BDE8704000F047B810B518
:1009C00000F01F000C4640F0400000F015F804F065
:1009D0000700BDE8104040F0700000F00DB870B5A1
:1009E00005460C46602000F007F805F03F00214660
:1009F000BDE8704000F012B810B50446FFF722FEC3
:100A00007020FFF7EBFDFFF75FFE2046FFF7E6FDE6
:100A1000FFF75AFEBDE81040FFF734BE70B50D4633
:100A20000446FFF70FFE7020FFF7D8FDFFF74CFEDE
:100A30002046FFF7D3FDFFF747FE2846FFF7CEFD20
:100A4000FFF742FEBDE87040FFF71CBE70B51646CA
:100A50000D460446FFF7F6FD7020FFF7BFFDFFF7D8
:100A600033FE2046FFF7BAFDFFF72EFE002407E015
:100A70002878FFF7B3FDFFF727FE641CE4B26D1C76
:100A8000B442F5D3BDE87040FFF7FCBD044A00292D
:100A9000D16901D0014300E08143D161704700007A
:100AA00000100240044A0029116901D0014300E00E
:100AB000814311617047000000100240044A002980
:100AC000916901D0014300E08143916170470000CA
:100AD00000100240044A0029D16801D0014300E01F
:100AE0008143D160704700000010024030B5224AB7
:100AF0005168224B11F00C0103D0042901D00829C0
:100B000001D0036015E05168546801F470114FF092
:100B1000020514F4803F05EB914107D0D46A04F03C
:100B20000F04641CB3FBF4F34B43EAE7144B594343
:100B3000016051680F2303EA1111124B5C5C0168DC
:100B4000E14041605468072505EA14241C5D21FA40
:100B500004F48460546805EAD4241B5DD940C16064
:100B60005268032303EA9232064B1B1F9A5CB1FBC7
:100B7000F2F1016130BD00000010024000127A0065
:100B800000093D00600000202DE9F05F4FF4E13BDB
:100B9000584600F057FC4FF4FA7A504600F0CCFB70
:100BA000DFF87C801F4C00271F4DA8F800702780BD
:100BB00001262E80DFF87490FFF770FC48B91C48BE
:100BC000FFF703FBC0B21838012802D889F800608B
:100BD00023E020880028EFD04FF4165000F032FCBC
:100BE000504600F0A9FBA8F8007027802E80104E18
:100BF0000F48FFF7EAFAC0B2801E022802D8307808
:100C0000402807D020880028F2D05846BDE8F05F81
:100C100000F018BC022189F800102F80BDE8F09F79
:100C20007E000020820000208000002014000020B0
:100C3000B00000200CB500221F480092019201680C
:100C400041F4803101604FF4A063016801F4003188
:100C500001910099491C0091019911B9009999429B
:100C6000F3D10168890324D50121019141684160D4
:100C70004168416041684160416821F47C114160F4
:100C8000416841F498114160016841F08071016050
:100C900001688901FCD5416821F003014160416888
:100CA00041F0020141604168C1F381010229FAD19A
:100CB0000CBD01920CBD0000001002404FF0E0217D
:100CC0000428086903D020F004000861704740F050
:100CD0000400FAE7104810B5016841F00101016015
:100CE00041680E4A1140416001680D4A114001609F
:100CF000016821F480210160416821F4FE01416016
:100D00004FF41F0181600021C162FFF793FF054985
:100D10004FF00060086010BD001002400000FFF8B6
:100D2000FFFFF6FE08ED00E03EB501210846FFF7A3
:100D3000ADFE4FF08044204600F0EEF842F2107114
:100D4000ADF804101721ADF800100021ADF8021025
:100D50006946204600F0AEF90121204600F0CCF8AB
:100D600001221146204600F09BF90121204600F0A7
:100D7000C9F801210846FFF789FE01210420FFF789
:100D800085FE0121014800F0BDF83EBD000800408D
:100D900070B501218C07204600F076F900282ED08E
:100DA0000121204600F0ABF81548002301240189F9
:100DB000491C89B201810288521C92B20280C58806
:100DC000012D04D14588AA4201D38480C380428981
:100DD000012A08D1A1F16402642A00D28381C829C2
:100DE00001D984810381018A012908D1C189491C63
:100DF00089B2C181C82902D344820382C38170BDF4
:100E00007000002008B54FF4A060FFF7BFFD1C2064
:100E10008DF8000001208DF801008DF802008DF89A
:100E200003006846FFF780FD08BD000010B50D4CBB
:100E30000121204600F028F9002811D00A48018835
:100E400041F400410180A1150848FFF725FB01216D
:100E5000204600F054F8BDE81040002000F038B8FB
:100E600010BD000000040040AE000020000C014056
:100E70007FB50D46044601210220FFF707FEADF8BD
:100E800004400020ADF80050104CADF80600ADF85D
:100E900002006946204600F00DF90121204600F0CD
:100EA0002EF801221146204600F0FAF81D208DF898
:100EB0000C0001208DF80D0002218DF80E108DF828
:100EC0000F0003A8FFF730FD7FBD000000040040C5
:100ED00010B5084A4FF0000130B11446104600F03A
:100EE000E7F80121204600E01046BDE8104000F080
:100EF00009B8000000040040C94301827047C9439B
:100F0000018270470029018802D041F0010101E00F
:100F100021F00101018070474B4910B5884202D190
:100F20000121C41486E0B0F1804F09D047498842BE
:100F30000DD101210220FFF7B5FD0021022064E060
:100F400001210846FFF7AEFD002101205DE0404988
:100F5000884206D101210420FFF7A4FD00210420CE
:100F600053E03C49884206D101210820FFF79AFD51
:100F70000021082049E03849884206D1012110208B
:100F8000FFF790FD002110203FE03449884206D150
:100F900001212020FFF786FD0021202035E0304987
:100FA000884202D10121441444E02E49884202D1F2
:100FB0000121CC043EE02C49884202D101210C05DC
:100FC00038E02A49884202D101214C0532E0284903
:100FD000884206D101214020FFF764FD0021402016
:100FE00013E02449884206D101218020FFF75AFDF1
:100FF0000021802009E0204988420AD1841501217E
:101000002046FFF74FFD00212046BDE81040FFF7C6
:1010100049BD1A49884202D101210C040AE018494D
:10102000884202D101214C0404E0164988420AD1C9
:1010300001218C042046FFF74DFD2046BDE81040FD
:101040000021FFF747BD10BD002C01400004004007
:1010500000080040000C0040001000400014004058
:1010600000340140004C0140005001400054014058
:1010700000180040001C00400020004000400140DB
:10108000004401400048014002460020138A928932
:101090000B4202EA010202D0002A00D00120704770
:1010A000002A828901D00A4300E08A438281704786
:1010B0008184704730B502881B4C1C4DA0420DD076
:1010C000A8420BD0B0F1804F08D0194B984205D000
:1010D000184B984202D0184B984203D122F070036B
:1010E0004A881A43154B984206D0154B984203D0B4
:1010F00022F44073CA881A4302808A8882850A884B
:101100000285A0420AD0A84208D00E4A904205D0DB
:101110000D4A904202D00D4A904201D1097A0186CF
:101120000121818230BD0000002C014000340140CB
:101130000004004000080040000C00400010004087
:1011400000140040004001400044014000480140BC
:1011500070B5164C40F22551204600F03BF80028AF
:101160001CD0204600F0C4F8114DC4B22A881004E7
:1011700014D410484FF48071642A10D2FFF78AF912
:1011800000210D48FFF794FF288810B90120FFF7D0
:101190009FFE0A4928880C54401C288070BD42F4E8
:1011A00000422A80BDE87040FFF776B90038014060
:1011B000AE000020000C0140000400407801002037
:1011C0000029818902D041F4005101E021F400514D
:1011D0008181704770B501F01F0501260024C1F31D
:1011E000421306FA05F2012B0FD0022B0FD0838A8F
:1011F0004FEA11210088134206FA01F600EA0600C0
:1012000001D000B10124204670BD8389F0E7038A34
:10121000EEE710B5C1F3421301F01F040121A14014
:10122000012B07D0022B07D01430002A026805D00A
:101230000A4304E00C30F8E71030F6E78A43026016
:1012400010BD000030B50446008A85B00D464CF64E
:10125000FF710840E98801432182A0894EF6F3110D
:101260000840A9882A8911436A8902431143A18150
:10127000A08A4FF6FF410840A9890143A182684630
:10128000FFF734FC1948844201D1039800E002982A
:10129000A189090400EBC00101EB0010296801D508
:1012A000490000E08900B0FBF1F06422B0FBF2F1EC
:1012B00009010B096FF018056B4300EB8300A3894C
:1012C0001D044FF0320306D503EBC000B0FBF2F073
:1012D00000F0070005E003EB0010B0FBF2F000F0B7
:1012E0000F000843208105B030BD000000380140E8
:1012F0008088C0F3080070477047000010B56FF099
:101300000400FFF7DBFC094809490068B0FBF1F075
:101310000849C0B200EB40020870C2EBC0104FF6A3
:10132000FF7202EAC000488010BD000000000020EB
:1013300000127A00AA0000200B49498848434FF068
:10134000E021486100238B61086940F001000861D9
:101350000869C20701D0C003FAD5086920F001006E
:1013600008618B6170470000AA0000200B490978D2
:1013700048434FF0E021486100238B61086940F049
:10138000010008610869C20701D0C003FAD50869E5
:1013900020F0010008618B6170470000AA00002066
:1013A000FFF7ACFFFFF7BCFAFFF72CFDFFF7BCFC23
:1013B0004FF4E13000F046F8FFF792FAFFF7F4F847
:1013C000FEF788FF00210820FFF7F9FA4FF4967026
:1013D000FFF7B2FFFFF7A4F94FF47A70FFF7ACFF05
:1013E000FFF7B3F94FF07F50FEF7C8FFFFF7CCFBD4
:1013F0000D4901200D4A0880642111800C490E4DD1
:101400000E4C08800B4900200D4E0880FFF764F851
:10141000208828B10128F9D13068FFF759FAF5E79B
:101420002868FFF7A7F9F1E7760000207200002096
:101430007A00002078000020180000207C000020A6
:101440001C00002030B5054687B0012144F205009C
:10145000FFF734FB4FF40070ADF8100003208DF857
:1014600012001820274C8DF8130004A92046FEF71F
:10147000C3FF2015ADF8100004208DF8130004A957
:101480002046FEF7B9FF25208DF8140000248DF8C2
:1014900015408DF8164001208DF8170005A8FFF7BC
:1014A00043FA0095ADF808400C20174DADF8044004
:1014B000ADF80A00ADF80640ADF80C406946284684
:1014C000FFF7C0FE012240F225512846FFF7A1FE9A
:1014D00001212846FFF774FE01210420FFF7D6FA08
:1014E00001210A48FFF70EFD094841F61F4104801B
:1014F00040F2DE30FFF7BCFC0020FFF7E9FC07B04C
:1015000030BD0000000801400038014000080040E4
:10151000AE00002021F00042A2F16052B2F5801F1F
:1015200001F0004328BFD2F17F6C0BD95FEA001CA9
:1015300043EAC20242EB507018BF704728BF20F048
:1015400001007047B2F5801FBCBF184670474FEAD4
:10155000410C1CF5001F02D2084600F050BA70B5CD
:1015600000F062F900000089FFF7F6BF4FF000407D
:10157000A0F58000704700002DE9C04130B4DFF8CD
:10158000A0C23CEA111418BF3CEA131400F0EC802E
:1015900081EA03051CEA111444EAD57418BF1CEA59
:1015A000131500F0C780A4EB05044FF0004545EA91
:1015B000C12145EAC32341EA505143EA525304F1A1
:1015C0007F74994204F500344FEAC0204FEAC222EA
:1015D00008BF904200F09C804FEA13650FF240165E
:1015E000765D4FEA134506FB05F7C7F1807706FBEA
:1015F00007F74FEAD737A7FB03687642C8F580386C
:10160000A7FB06CE38BFA8F1010807FB08E64FF09C
:10161000000EA6FB028CE6FB03CEDCF1000CCEF143
:10162000004E38BFAEF1010EA6FB0C584FF000077C
:101630004FF00005E6FB0E87A1FB08C6A0FB07CE16
:1016400016EB0E0645F10005E1FB076515F1E04ECE
:101650007EBFA4F580345FEA46066D4116F180072F
:1016600045F100054FEA17274FEA066647EA056786
:10167000A6F1DE46B6F1805F4FEA15251FD9384640
:1016800024F0010C05EBC471BCF1FE6F01EB0C11F1
:1016900002D8F0BCBDE8008124425CBF01F5801E89
:1016A0009EEAC47F02D4F0BCBDE80081244238D455
:1016B000F0BCA1F1C041BDE8004100F003B94FEA20
:1016C000D22242EA43524FEAD323A7FB02864FEAD3
:1016D000D02040EA415007FB03661EEA0E0F4FEA96
:1016E000D12105FB026658BFA6EB0056B6EB0056AB
:1016F0004FEA520E4EEAC37E18EB0E0E56EB530E17
:10170000BDD518EB02085E417F1C55F10005B6E718
:101710004FF480154FF000074FF000064FF000081F
:10172000ADE7F0BC4FF0000001F1C04101F0004115
:10173000BDE8008111EA0C1F0CEA131500D00CE083
:1017400013EA0C1F00F025804FF00000F0BC81EA86
:10175000030101F00041BDE80081F0BCBDE800419B
:1017600081EA030100F0AEB8F0BCBDE8004170B5FD
:1017700000F05AF8097EFC3E00F007B881EA030148
:101780004FF0000001F00041704781EA030100F0D2
:1017900099B8F0BCBDE800414FF000002149704706
:1017A000FFFDFBF9F7F5F4F2F0EEEDEBE9E8E6E426
:1017B000E3E1E0DEDDDBDAD8D7D5D4D3D1D0CFCDAD
:1017C000CCCBCAC8C7C6C5C4C2C1C0BFBEBDBCBBE6
:1017D000BAB9B8B7B6B5B4B3B2B1B0AFAEADACABE1
:1017E000AAA9A8A8A7A6A5A4A3A3A2A1A09F9F9EBB
:1017F0009D9C9C9B9A99999897979695959493936D
:10180000929191908F8F8E8E8D8C8C8B8B8A898903
:101810008888878786858584848383828281818086
:101820000000FF070000F87F0EF1020E2EF0030EFD
:101830005EF8046B364205D4012A43EB030515F527
:10184000001F12D8012841EB010C1CF5001F0CD819
:101850000ED14FEAD17C15F5001F0CEB4C0C0CF1AE
:10186000020C08BF4CEBD37C04E04FF0080C01E005
:101870004FEAD37C0CEB4C0526FA05F606F007067A
:10188000B6F1040C06D20EEB860CBDE870404CF0AD
:10189000010C6047DFE80CF0090B02024FF0004139
:1018A0004FF00000A1F5002170BD19461046012837
:1018B00051EB010418BFD4F5001484BF002001F0DF
:1018C000004170BD0808A0F500114FEA31017047D2
:1018D00043004FEAD30C4FEA3C0C43401FBF400784
:1018E0000CF1605113F0FE4F70471CF0006F03D1F4
:1018F00000200CF0004170470CF0004343EA5070A8
:1019000010B540EACC0000F034F800BF00000092AF
:101910004FEA0001FFF7D6BF4FF000414FF0000043
:10192000A1F5002170470000014800F06DB800BF2C
:101930000000C07FC10DD1F19E0206DB4FEA0023FB
:1019400043F0004323FA02F07047004207D54FEA04
:101950004001B1F1FE4F02D24FF00000704710B5C8
:1019600000F007F849922480002070476FEA2000B9
:1019700070470EF1020E2EF0030E5EF8044B244267
:1019800004D44FEA4102B2F17F4F11D84FEA40032D
:10199000B3F17F4F0CD80ED14FEAD07CB2F17F4F1C
:1019A0000CEB4C0C0CF1020C08BF4CEBD17C04E0AE
:1019B0004FF0080C01E04FEAD17C0CEB4C0324FA09
:1019C00003F404F00704B4F1040C06D20EEB840C0B
:1019D000BDE810404CF0010C6047DFE80CF0070850
:1019E00002024FF00040A0F5800010BD0846420002
:1019F00018BFD2F1807288BF00F0004010BDFF21F7
:101A000041EAD050C00570470CF00F03092B08BF06
:101A1000082000F051800A2B0BD0082B18BF70470C
:101A200008BF1CF0400F0AD04FF000004FF000013B
:101A300070471CF0400F18BF4FF0004070471CF07B
:101A4000100F08D020F0704300F07F4242EAD3012B
:101A50004FEA4370704700F0604021F07F4242EA55
:101A6000000201F07F4040EA727070474FF0FF02C1
:101A700012EAD0521CBF92F0FF038B42C2BFD14288
:101A800000EBC1507047002A0AD0002B0BD0002970
:101A900000F00040A4BF40F0FE4040F4000070475A
:101AA00000F00040704743024FF00B0C18BF4CF0A1
:101AB000806C7FF439AF70471CF4801F11D01CF488
:101AC000E02F03D06FEACC31490070474FF040500F
:101AD000EFF3008222F0704242EA000282F30088B3
:101AE00070474FF000007047081B000800000020FE
:101AF000B000000028010008B81B0008B00000205A
:101B0000F00700004401000800366E0100000000EC
:101B1000000000000102030406070809000000009D
:101B20000000000000000000494E49540D3A3231D7
:101B3000630D0A3A3431650D0A3A3631670D0A5A97
:101B400045524F320D3A310000310D0A3A330190BF
:101B5000C40D0A3A350000350D0A43414C42203489
:101B60003030300D020406080000000001020304BA
:101B7000010203040607080900000000000000003D
:101B80000000000000000000000000001E1C1A18E9
:101B900016F560D3F266B6B7E0F7F60000000178FC
:101BA000DA809A14A80200000000000E12B216B0EB
:081BB0001C0000000000000011
:04000005080000ED02
:00000001FF
