:020000040800F2
:1000000030070020890100089101000893010008D1
:100010009501000897010008990100080000000000
:100020000000000000000000000000009B0100082C
:100030009D010008000000009F010008A1010008C8
:10004000A3010008A3010008A3010008A301000800
:10005000A3010008A301000831020008A301000861
:10006000A3010008A3010008A3010008A3010008E0
:10007000A3010008A3010008A3010008A3010008D0
:10008000A3010008A3010008A3010008A3010008C0
:10009000A3010008A3010008A3010008A3010008B0
:1000A000A3010008A3010008A3010008A3010008A0
:1000B0009D030008A301000800000000A301000840
:1000C000A30100080000000000000000A3010008D8
:1000D00000000000DD030008A3010008000000008C
:1000E000A3010008A3010008A301000800F002F822
:1000F00000F03AF80AA090E8000C82448344AAF188
:100100000107DA4501D100F02FF8AFF2090EBAE885
:100110000F0013F0010F18BFFB1A43F0010318473B
:10012000AC030000CC030000103A24BF78C878C1AB
:10013000FAD8520724BF30C830C144BF04680C60ED
:10014000704700000023002400250026103A28BF35
:1001500078C1FBD8520728BF30C148BF0B60704739
:100160001FB51FBD10B510BD00F033F81146FFF7E5
:10017000F7FF00F0A8F900F051F803B4FFF7F2FF21
:1001800003BC00F09EF90000094880470948004779
:10019000FEE7FEE7FEE7FEE7FEE7FEE7FEE7FEE737
:1001A000FEE7FEE704480549054A064B7047000094
:1001B00039030008ED00000830010020300700205E
:1001C00030030020300300207047704770477047AD
:1001D0007047754600F028F8AE460500694653465C
:1001E00020F00700854618B020B5FFF7DBFFBDE81B
:1001F00020404FF000064FF000074FF000084FF08E
:10020000000B21F00701AC46ACE8C009ACE8C0091E
:10021000ACE8C009ACE8C0098D4670470446AFF3AE
:1002200000802046FFF7A9FF00487047D00000205B
:1002300010B5012000F00CF810B1012000F002F818
:1002400010BD00000149086070470000140401401F
:10025000014600200022074B1B6803EA0102054B00
:1002600014331B680B4013B10AB1012000E00020D9
:10027000704700000004014010B500F001F810BD07
:100280000CB50020019000902A48006840F48030AE
:100290002849086000BF2748006800F4003000903B
:1002A0000198401C0190009818B90198B0F5A06F12
:1002B000F1D12048006800F4003010B10120009016
:1002C00001E0002000900098012831D119484068D1
:1002D00018494860084640684860084640684860D9
:1002E0000846406820F47C1048600846406840F4A6
:1002F000981048600846006840F08070086000BFB1
:100300000C48006800F000700028F9D009484068E7
:1003100020F00300074948600846406840F00200AA
:10032000486000BF0348406800F00C000828F9D17D
:100330000CBD00000010024010B51448006840F0E9
:1003400001001249086008464068114908400F49F9
:100350004860084600680F4908400C490860084694
:10036000006820F4802008600846406820F4FE0001
:1003700048604FF41F0088600020C862FFF77CFFD0
:100380004FF000600449086010BD000000100240FA
:100390000000FFF8FFFFF6FE08ED00E010B50121B8
:1003A000880700F009F818B10121880700F001F86A
:1003B00010BDCA430282704730B5024600200023B8
:1003C0000024158A05EA0103958905EA010413B1A1
:1003D0000CB1012000E0002030BD000010B540F25B
:1003E00025511D4800F03EF810B31B4800F064F89A
:1003F000C4B21A48008800F40040C8B91748008801
:1004000000F4804060B10A2C03D00020134908801A
:1004100020E01248008840F400401049088019E0AC
:100420000D2C06D10D48008840F480400B4908800F
:1004300010E00A480088C0F30D0009490C54074831
:100440000088401C0549088008460088C72801DD4F
:100450000020088010BD000000380140040000208A
:100460000800002070B5024600240023002500206B
:1004700040F66A16B14200D100BFC1F3421501F047
:100480001F03012606FA03F3012D02D1968933409A
:1004900006E0022D02D1168A334001E0968A3340ED
:1004A0000C12012606FA04F41688344013B10CB17C
:1004B000012000E0002070BD01468888C0F30800DC
:1004C000704700BF7047002070470000EC04000830
:1004D000000000200800000028010008F4040008C3
:1004E0000800002028070000440100080000000068
:0404F0000000000008
:04000005080000ED02
:00000001FF
