:020000040800F2
:10000000B008002089010008910100089301000850
:100010009501000897010008990100080000000000
:100020000000000000000000000000009B0100082C
:100030009D010008000000009F010008A1010008C8
:10004000A3010008A3010008A3010008A301000800
:10005000A3010008A301000839040008A301000857
:10006000A3010008A3010008A3010008A3010008E0
:10007000A3010008A3010008A3010008A3010008D0
:10008000A3010008A3010008A3010008A3010008C0
:10009000A3010008A3010008A3010008A3010008B0
:1000A000A3010008A3010008A3010008A3010008A0
:1000B000F51000089D11000800000000A3010008D1
:1000C000A30100080000000000000000A3010008D8
:1000D00000000000E1140008A30100080000000077
:1000E000A3010008A3010008A301000800F002F822
:1000F00000F03AF80AA090E8000C82448344AAF188
:100100000107DA4501D100F02FF8AFF2090EBAE885
:100110000F0013F0010F18BFFB1A43F0010318473B
:10012000741D0000941D0000103A24BF78C878C1E7
:10013000FAD8520724BF30C830C144BF04680C60ED
:10014000704700000023002400250026103A28BF35
:1001500078C1FBD8520728BF30C148BF0B60704739
:100160001FB51FBD10B510BD00F0BAF81146FFF75E
:10017000F7FF01F0E7FA00F0D8F803B4FFF7F2FF59
:1001800003BC01F08BFA000009488047094800478A
:10019000FEE7FEE7FEE7FEE7FEE7FEE7FEE7FEE737
:1001A000FEE7FEE704480549054A064B7047000094
:1001B00039100008ED000008B0020020B00800204F
:1001C000B0040020B0040020704710B5431C02E0CA
:1001D00010F8011B71B18107FAD14FF0013202C84A
:1001E0008C1A8C4314EAC211F9D0C01A0A0603D043
:1001F000C01E10BDC01A10BD0A0401D0801E10BD63
:100200000902FCD0401E10BD4FF0000200B513469D
:1002100094469646203922BFA0E80C50A0E80C5026
:10022000B1F12001BFF4F7AF090728BFA0E80C50D7
:1002300048BF0CC05DF804EB890028BF40F8042BD0
:1002400008BF704748BF20F8022B11F0804F18BF3D
:1002500000F8012B704700004FF0013C50F8042BD0
:1002600051F8043B9A4221D1A2EB0C03934313EAC9
:10027000CC1317D150F8042B51F8043B9A4215D1F6
:10028000A2EB0C03934313EACC130BD150F8042BCD
:1002900051F8043B9A4209D1A2EB0C03934313EAB1
:1002A000CC13DBD04FF00000704700BFD01A01BA6A
:1002B000B1FA81F101F0180122FA01F0CB40C1F14D
:1002C0002001DBB2C0B2C01A2CFA01F3D11A91435B
:1002D00011EAC311E6D17047704770477047704705
:1002E000754600F029F8AE4605006946534620F0F1
:1002F0000700854618B020B5FFF754FFBDE8204041
:100300004FF000064FF000074FF000084FF0000BD1
:1003100021F00701AC46ACE8C009ACE8C009ACE884
:10032000C009ACE8C0098D4670470446AFF30080B1
:100330002046FFF722FF0000004870474C020020D3
:10034000044B01228240186809B1104300E0904339
:10035000186070470074004010B586B00121042079
:1003600000F05EFD0121480700F042FD1020ADF8CD
:10037000100003208DF8120000248DF8134004A90A
:10038000084800F07BF83C20CDE90004029469465F
:100390000020039400F008F801210020FFF7D0FFAF
:1003A00006B010BD0008014030B5084C236840F687
:1003B000FE7282409343D1E900252A43D1E90251DC
:1003C0000D432A4382401A43226030BD007400402E
:1003D000034A08B5104408300090016008BD0000D1
:1003E000007400400209054B012090400029196863
:1003F00001D0014300E0814319607047047400405C
:1004000010B50C2101F008FD01F038FC4FF0663208
:10041000084B01F087FA01F053FA01F061FC81B258
:100420000020FFF7D5FF0121BDE810400020FFF7B5
:10043000D9BF000066660A4010B5012000F00EF832
:10044000002804D0BDE81040012000F001B810BD24
:10045000014908607047000014040140064A014643
:1004600000201268044B0A4014331B680B4202D070
:10047000002A00D00120704700040140F0B5CC787C
:10048000002204F00F03E40601D58C7823430C7896
:100490004FF00F0C14F0FF0F4FF0010E1BD005684A
:1004A0000E880EFA02F42640A64210D196000CFAED
:1004B00006F725EA070703FA06F5CE783D43282E0E
:1004C00002D0482E02D002E0446100E00461521CD8
:1004D000082AE5D305600A88FF2A1CD9446800224F
:1004E00002F108060EFA06F50E882E40AE420ED135
:1004F00096000CFA06F7BC4303FA06F7CE783C43A5
:10050000282E00D14561CE78482E00D10561521CBD
:10051000082AE5D34460F0BD41617047016170472E
:1005200030B50B4C208801040FD5C0F30B0300201D
:100530000849094A5B1C03E00D5C1554401C80B25D
:100540009842F9D30020208030BDFE2030BD00004D
:10055000B800002084010020BC00002030B5FFF767
:10056000DFFF002833D12E4900222E480B78012BC3
:1005700008D0022B2BD142788078C2EB02221044A3
:10058000486020E000244A60035D2E2B0CD0641CE0
:10059000E4B2052CF8D34DB1012D0BD0022D17D0AC
:1005A000032D26D048680EE02546F4E74078303A1F
:1005B000104407E0827800786FF02F03303800EBAA
:1005C000800012E048604FF4FA725043886030BDFA
:1005D0000278C378303A02EBC20404EB021203EB58
:1005E00082024078104B00EB800003EB4000104487
:1005F000E8E702780379303A02EB4204C4EBC21216
:1006000003EBC203427880786424624300EB8000ED
:1006100002EB40001844A0F5A050D038D2E700000B
:1006200014000020BC000020F0FDFFFF2DE9F05F6A
:100630007E49002501260978DFF8F481DFF8F4917E
:100640007D4C012913D0022949D1012870D00228FC
:100650006FD0032843D175483E30FFF7B6FDDFF871
:10066000CCB100F0FF0A00270BF13E0BCDE00128D2
:100670000FD0022835D0032831D16C483030FFF735
:10068000A4FDDFF8A8B100F0FF0A00270BF1300B42
:1006900057E066483730FFF798FDDFF890B100F07B
:1006A000FF0A00270BF1370B05E01BF8070000F0ED
:1006B00007FF7F1CFFB25745F7D3A8F800502580ED
:1006C0004F46A9F80060FFF72BFF28B957495B4850
:1006D0001D31FFF7C1FD68BB20880028F3D0BDE8BD
:1006E000F09F52482930FFF770FDDFF840B100F06D
:1006F000FF0A00270BF1290B05E01BF8070000F0AB
:10070000DFFE7F1CFFB25745F7D3A8F800502580C5
:100710004F46A9F80060FFF703FF28B9434947484F
:100720001131FFF799FD28B920880028F3D0D6E7CA
:1007300021E042E016E01BF8070000F0C1FE7F1C3C
:10074000FFB25745F7D3A8F8005025804F46A9F8C7
:100750000060FFF7E5FE50B9344938481731FFF71C
:100760007BFD20B1A8F8005026803D80B7E72088A7
:100770000028EED0B3E72D480C30FFF726FDDFF858
:10078000ACB000F0FF0A00270BF10C0B05E01BF8E2
:10079000070000F095FE7F1CFFB25745F7D3A8F87D
:1007A000005025804F46A9F80060FFF7B9FE0028E9
:1007B000D8D020880028F8D091E71C482330FFF7D4
:1007C00004FDDFF868B000F0FF0A00270BF1230BEF
:1007D00005E01BF8070000F073FE7F1CFFB25745D1
:1007E000F7D3A8F8005025804F46A9F80060FFF71E
:1007F00097FE0028B6D020880028F8D06FE71BF8B5
:10080000070000F05DFE7F1CFFB25745F7D3A8F844
:10081000005025804F46A9F80060FFF781FE0028B0
:10082000A0D020880028F8D059E70000140000204C
:10083000840000208600002088000020BC000020EA
:1008400003480068400601D431207047FF207047FC
:100850000808014038B50121082000F0E1FAC02065
:10086000ADF8000010208DF803000320054C8DF832
:10087000020069462046FFF701FEC0212046FFF72F
:100880004DFE38BD000C01402DE9F04105461648EB
:10089000016821F070410160016841F04051016040
:1008A000124E0027C6F898713C464FF00108280602
:1008B00002D5C6F89C8101E0C6F89C716806050E59
:1008C000022000F025FFC6F89881022000F020FFEA
:1008D000C6F89871022000F01BFF641CE4B2082CDB
:1008E000E5D3BDE8F0810000000C0140008021420A
:1008F00070B50D48016821F070410160016841F058
:1009000040510160094C0120C4F89C01C4F89801D1
:10091000042004F5CC7400F0FBFE00256560042083
:1009200000F0F6FE256070BD000C01400080214201
:100930000E4810B5016821F070410160016841F076
:10094000405101600A4C0020C4F89801C4F89C0191
:10095000042004F5CC7400F0DBFE01202060606010
:10096000BDE81040042000F0D3BE0000000C0140A0
:100970000080214270B513480024016821F07041C5
:100980000160016841F0004101600F4D0126C5F88A
:100990009C61304600F0BCFEC5F89861012000F073
:1009A000B7FE07E0641CE4B2FA2C03D9FFF7C0FFDE
:1009B000012070BDD5F81C010028F3D1C5F89801BD
:1009C00070BD0000000C01400080214238B50121BB
:1009D0000C2000F025FA8020ADF8000001248DF8ED
:1009E000024004258DF8035069460C48FFF746FD88
:1009F000ADF800408DF802408DF803506946084874
:100A0000FFF73CFD074900200870074908700749B7
:100A10000870074908700749088038BD0008014080
:100A2000000C0140700000207100002072000020C6
:100A3000730000208A00002010B5FFF701FF0F4C63
:100A40002078FF2819D0312802D10120FFF7EEFDD0
:100A50002078322802D10220FFF7E8FD084C2078E8
:100A600001280AD100F00EF80320FFF7DFFD002077
:100A70002070BDE8104000F01AB810BD73000020CF
:100A80007400002000B587B018216846FFF7BCFB52
:100A900000206A46FF211154401CC0B21428FAD32A
:100AA00014226946002000F02DF907B000BD00B502
:100AB00087B018216846FFF7A7FB1422694600207B
:100AC00000F020F907B000BD0B220249002000F021
:100AD00019B900009D00002070B528B100F012F88F
:100AE000BDE87040FFF7F0BF054D6C1F2978E07836
:100AF00000F027F92978207900F023F9F0E70000C9
:100B0000930000202DE9FC4704460020009001904E
:100B100005226946162000F0F5F8404884424FD27D
:100B20003F4E41100A25771F42F210704FF06408C3
:100B30004FF47A798C4231D349420C44B4FBF0F043
:100B4000B0FBF5F105FB1100315C387800F0F9F8E5
:100B5000B4FBF9F0B0FBF5F105FB1100315C7878DE
:100B600000F0EFF8B4FBF8F0B0FBF5F105FB110075
:100B7000315CB87800F0E5F8B4FBF5F0B0FBF5F1C6
:100B800005FB1100315CF87800F0DBF8B4FBF5F000
:100B900005FB1040305C40F008010EE042F20F719E
:100BA0008C420FD9B4FBF0F0B0FBF5F105FB11005E
:100BB000315C387800F0C5F806E0387900F0C1F80B
:100BC000BDE8FC874C450AD3B4FBF9F0B0FBF5F166
:100BD00005FB1100315C787800F0B3F801E0632C7C
:100BE0000AD9B4FBF8F0B0FBF5F105FB1100315C5C
:100BF000B87800F0A6F801E0092C09D9B4FBF5F0AB
:100C0000B0FBF5F105FB1100315CF87800F099F8C4
:100C1000B4FBF5F005FB1040315CCEE7400D03005E
:100C2000930000200B220249002000F06BB8000066
:100C3000A800002010B5FFF765FFBDE81040FFF7E2
:100C4000F1BF000038B50121082000F0E9F84FF4A9
:100C50009070ADF8000010208DF803000320084CC0
:100C60008DF8020069462046FFF708FCA1152046D2
:100C7000FFF754FC20212046FFF750FC38BD000050
:100C8000000C01404FF4A06000F032B830B50F23E3
:100C9000C27801780125F2B1144A126801F1E0210D
:100CA00002F4E062C2F5E062120AC2F10404D34029
:100CB0004278A24084781C401443220181F8002429
:100CC000007800F01F018D404009800000F1E02015
:100CD000C0F8005130BD01F01F0085404809800078
:100CE00000F1E020C0F8805130BD00000CED00E0C4
:100CF0000249084302490860704700000000FA05F5
:100D00000CED00E070B5064614460D46602000F07C
:100D100025F806F03F0022462946BDE8704000F065
:100D200047B810B500F01F000C4640F0400000F03E
:100D300015F804F00700BDE8104040F0700000F026
:100D40000DB870B505460C46602000F007F805F0B8
:100D50003F002146BDE8704000F012B810B50446CF
:100D6000FFF7C6FD7020FFF78FFDFFF703FE20465B
:100D7000FFF78AFDFFF7FEFDBDE81040FFF7D8BD85
:100D800070B50D460446FFF7B3FD7020FFF77CFDFC
:100D9000FFF7F0FD2046FFF777FDFFF7EBFD284654
:100DA000FFF772FDFFF7E6FDBDE87040FFF7C0BD3D
:100DB00070B516460D460446FFF79AFD7020FFF702
:100DC00063FDFFF7D7FD2046FFF75EFDFFF7D2FD7D
:100DD000002407E02878FFF757FDFFF7CBFD641CE0
:100DE000E4B26D1CB442F5D3BDE87040FFF7A0BD7E
:100DF000044A0029D16901D0014300E08143D16157
:100E00007047000000100240044A0029116901D017
:100E1000014300E08143116170470000001002406F
:100E2000044A0029916901D0014300E081439161A6
:100E30007047000000100240044A0029D16801D028
:100E4000014300E08143D160704700000010024080
:100E500030B5224A5168224B11F00C0103D004290D
:100E600001D0082901D0036015E05168546801F4ED
:100E700070114FF0020514F4803F05EB914107D04B
:100E8000D46A04F00F04641CB3FBF4F34B43EAE7A9
:100E9000144B5943016051680F2303EA1111124B9F
:100EA0005C5C0168E14041605468072505EA142450
:100EB0001C5D21FA04F48460546805EAD4241B5DA7
:100EC000D940C1605268032303EA9232064B1B1FCC
:100ED0009A5CB1FBF2F1016130BD000000100240EC
:100EE00000127A0000093D00600000202DE9F05F4B
:100EF0004FF4E13B584600F07BFC4FF4FA7A504641
:100F000000F0ECFBDFF87C801F4C00271F4DA8F899
:100F10000070278001262E80DFF87490FFF700FB19
:100F200048B91C48FFF751F9C0B21838012802D857
:100F300089F8006023E020880028EFD04FF4165095
:100F400000F056FC504600F0C9FBA8F8007027805E
:100F50002E80104E0F48FFF738F9C0B2801E0228CD
:100F600002D83078402807D020880028F2D0584690
:100F7000BDE8F05F00F03CBC022189F800102F8032
:100F8000BDE8F09F8400002088000020860000203B
:100F900014000020BC0000200CB500221F48009265
:100FA0000192016841F4803101604FF4A06301684F
:100FB00001F4003101910099491C0091019911B986
:100FC00000999942F3D10168890324D50121019147
:100FD000416841604168416041684160416821F475
:100FE0007C114160416841F498114160016841F011
:100FF0008071016001688901FCD5416821F003011D
:101000004160416841F0020141604168C1F38101E2
:101010000229FAD10CBD01920CBD00000010024063
:101020004FF0E0210428086903D020F00400086193
:10103000704740F00400FAE7104810B5016841F02D
:101040000101016041680E4A1140416001680D4A8A
:1010500011400160016821F480210160416821F4A0
:10106000FE0141604FF41F0181600021C162FFF762
:1010700093FF05494FF00060086010BD001002406A
:101080000000FFF8FFFFF6FE08ED00E03EB501218D
:101090000846FFF7ADFE4FF08044204600F0F4F81C
:1010A00042F21071ADF804101721ADF800100021C4
:1010B000ADF802106946204600F0B4F9012120463F
:1010C00000F0D2F801221146204600F0A1F90121DA
:1010D000204600F0CFF801210846FFF789FE0121E4
:1010E0000420FFF785FE0121014800F0C3F83EBD52
:1010F0000008004070B501218C07204600F07CF903
:10110000002834D00121204600F0B1F81848002111
:10111000027802B10170817041704183C28901245B
:10112000521C92B2C281C3885B1C9BB2C38085896A
:10113000012D04D10589AB4201D344818181038A09
:10114000012B08D1A2F16403642B00D24182C82A8A
:1011500001D94482C181C28A012A08D1828A521CE3
:1011600092B28282C82A02D30483C182818270BD76
:101170007000002008B54FF4A060FFF7B9FD1C20F7
:101180008DF8000001208DF801008DF802008DF827
:1011900003006846FFF77AFD08BD000010B50D4C4E
:1011A0000121204600F028F9002811D00A480188C2
:1011B00041F400410180A1150848FFF7AFF9012172
:1011C000204600F054F8BDE81040002000F038B888
:1011D00010BD000000040040B8000020000C0140D9
:1011E0007FB50D46044601210220FFF701FEADF850
:1011F00004400020ADF80050104CADF80600ADF8EA
:1012000002006946204600F00DF90121204600F059
:101210002EF801221146204600F0FAF81D208DF824
:101220000C0001208DF80D0002218DF80E108DF8B4
:101230000F0003A8FFF72AFD7FBD00000004004057
:1012400010B5084A4FF0000130B11446104600F0C6
:10125000E7F80121204600E01046BDE8104000F00C
:1012600009B8000000040040C94301827047C94327
:10127000018270470029018802D041F0010101E09C
:1012800021F00101018070474B4910B5884202D11D
:101290000121C41486E0B0F1804F09D0474988424B
:1012A0000DD101210220FFF7AFFD0021022064E0F3
:1012B00001210846FFF7A8FD002101205DE040491B
:1012C000884206D101210420FFF79EFD0021042061
:1012D00053E03C49884206D101210820FFF794FDE4
:1012E0000021082049E03849884206D10121102018
:1012F000FFF78AFD002110203FE03449884206D1E3
:1013000001212020FFF780FD0021202035E0304919
:10131000884202D10121441444E02E49884202D17E
:101320000121CC043EE02C49884202D101210C0568
:1013300038E02A49884202D101214C0532E028498F
:10134000884206D101214020FFF75EFD00214020A8
:1013500013E02449884206D101218020FFF754FD83
:101360000021802009E0204988420AD1841501210A
:101370002046FFF749FD00212046BDE81040FFF759
:1013800043BD1A49884202D101210C040AE01849E0
:10139000884202D101214C0404E0164988420AD156
:1013A00001218C042046FFF747FD2046BDE8104090
:1013B0000021FFF741BD10BD002C0140000400409A
:1013C00000080040000C00400010004000140040E5
:1013D00000340140004C01400050014000540140E5
:1013E00000180040001C0040002000400040014068
:1013F000004401400048014002460020138A9289BF
:101400000B4202EA010202D0002A00D001207047FC
:10141000002A828901D00A4300E08A438281704712
:101420008184704730B502881B4C1C4DA0420DD002
:10143000A8420BD0B0F1804F08D0194B984205D08C
:10144000184B984202D0184B984203D122F07003F7
:101450004A881A43154B984206D0154B984203D040
:1014600022F44073CA881A4302808A8882850A88D7
:101470000285A0420AD0A84208D00E4A904205D068
:101480000D4A904202D00D4A904201D1097A01865C
:101490000121818230BD0000002C01400034014058
:1014A0000004004000080040000C00400010004014
:1014B0000014004000400140004401400048014049
:1014C00010B5064C0146204600F0E4F88021204685
:1014D00000F048F80028F9D010BD000000380140A5
:1014E00070B5164C40F22551204600F042F8002815
:1014F0001CD0204600F0CAF8114DC4B22A8810044E
:1015000014D410484FF48071642A10D2FFF704F805
:1015100000210D48FFF784FF288810B90120FFF74C
:101520008FFE0A4928880C54401C288070BD42F464
:1015300000422A80BDE87040FEF7F0BF003801404D
:10154000B8000020000C014000040040840100208D
:101550000029818902D041F4005101E021F40051B9
:10156000818170470246002012880A4200D0012083
:10157000704770B501F01F0501260024C1F3421326
:1015800006FA05F2012B0FD0022B0FD0838A4FEA07
:1015900011210088134206FA01F600EA060001D084
:1015A00000B10124204670BD8389F0E7038AEEE78D
:1015B00010B5C1F3421301F01F040121A140012B1A
:1015C00007D0022B07D01430002A026805D00A4346
:1015D00004E00C30F8E71030F6E78A43026010BDF3
:1015E00030B50446008A85B00D464CF6FF710840C0
:1015F000E98801432182A0894EF6F3110840A988A9
:101600002A8911436A8902431143A181A08A4FF6B6
:10161000FF410840A9890143A1826846FFF718FCF1
:101620001948844201D1039800E00298A189090475
:1016300000EBC00101EB0010296801D5490000E072
:101640008900B0FBF1F06422B0FBF2F109010B0953
:101650006FF018056B4300EB8300A3891D044FF066
:10166000320306D503EBC000B0FBF2F000F0070038
:1016700005E003EB0010B0FBF2F000F00F000843B0
:10168000208105B030BD0000003801408088C0F3E3
:1016900008007047C1F3080181807047704700005F
:1016A00010B56FF00400FFF7BBFC0948094900685A
:1016B000B0FBF1F00849C0B200EB40020870C2EB89
:1016C000C0104FF6FF7202EAC000488010BD000053
:1016D0000000002000127A00B40000200B49498865
:1016E00048434FF0E021486100238B61086940F0D6
:1016F000010008610869C20701D0C003FAD5086972
:1017000020F0010008618B6170470000B4000020E8
:101710000B49097848434FF0E021486100238B6171
:10172000086940F0010008610869C20701D0C003E0
:10173000FAD5086920F0010008618B61704700004C
:10174000B4000020FFF7ACFFFFF79CFAFFF712FD93
:10175000FFF79CFC4FF4E13000F04AF8FFF772FA13
:10176000FFF778F8FEF7F8FDFFF730F900210820C1
:10177000FFF7D7FA4FF49670FFF7B0FFFFF782F943
:101780004FF47A70FFF7AAFFFFF791F94FF07F50FF
:10179000FEF736FEFFF7AAFB0E4901200E4A08802D
:1017A000642111800D490F4D0F4C08800C49002019
:1017B0000E4E0880FFF740F9FEF7D0FE208828B1D2
:1017C0000128F7D13068FFF735FAF3E72868FFF70B
:1017D00083F9EFE77C0000207800002080000020E3
:1017E0007E00002018000020820000201C00002045
:1017F00030B5054687B0012144F20500FFF710FB24
:101800004FF40070ADF8100003208DF8120018207E
:10181000274C8DF8130004A92046FEF72FFE201553
:10182000ADF8100004208DF8130004A92046FEF73F
:1018300025FE25208DF8140000248DF815408DF824
:10184000164001208DF8170005A8FFF71FFA009534
:10185000ADF808400C20174DADF80440ADF80A0073
:10186000ADF80640ADF80C4069462846FFF7B8FED3
:10187000012240F225512846FFF79AFE0121284611
:10188000FFF766FE01210420FFF7B2FA01210A48A2
:10189000FFF7F0FC094841F61F41048040F2DE30BA
:1018A000FFF79EFC0020FFF7CBFC07B030BD000027
:1018B000000801400038014000080040B800002046
:1018C00021F00042A2F16052B2F5801F01F0004306
:1018D00028BFD2F17F6C0BD95FEA001C43EAC20239
:1018E00042EB507018BF704728BF20F001007047CE
:1018F000B2F5801FBCBF184670474FEA410C1CF57B
:10190000001F02D2084600F050BA70B500F062F92C
:1019100000000089FFF7F6BF4FF00040A0F58000FF
:10192000704700002DE9C04130B4DFF8A0C23CEAA6
:10193000111418BF3CEA131400F0EC8081EA03058F
:101940001CEA111444EAD57418BF1CEA131500F000
:10195000C780A4EB05044FF0004545EAC12145EAE4
:10196000C32341EA505143EA525304F17F74994230
:1019700004F500344FEAC0204FEAC22208BF90426B
:1019800000F09C804FEA13650FF24016765D4FEA37
:10199000134506FB05F7C7F1807706FB07F74FEA0B
:1019A000D737A7FB03687642C8F58038A7FB06CE79
:1019B00038BFA8F1010807FB08E64FF0000EA6FBB0
:1019C000028CE6FB03CEDCF1000CCEF1004E38BFFA
:1019D000AEF1010EA6FB0C584FF000074FF00005CA
:1019E000E6FB0E87A1FB08C6A0FB07CE16EB0E0692
:1019F00045F10005E1FB076515F1E04E7EBFA4F55A
:101A000080345FEA46066D4116F1800745F1000516
:101A10004FEA17274FEA066647EA0567A6F1DE4652
:101A2000B6F1805F4FEA15251FD9384624F0010C26
:101A300005EBC471BCF1FE6F01EB0C1102D8F0BCD8
:101A4000BDE8008124425CBF01F5801E9EEAC47F90
:101A500002D4F0BCBDE80081244238D4F0BCA1F12E
:101A6000C041BDE8004100F003B94FEAD22242EA8A
:101A700043524FEAD323A7FB02864FEAD02040EA25
:101A8000415007FB03661EEA0E0F4FEAD12105FB0A
:101A9000026658BFA6EB0056B6EB00564FEA520E50
:101AA0004EEAC37E18EB0E0E56EB530EBDD518EB67
:101AB00002085E417F1C55F10005B6E74FF4801522
:101AC0004FF000074FF000064FF00008ADE7F0BC04
:101AD0004FF0000001F1C04101F00041BDE800817C
:101AE00011EA0C1F0CEA131500D00CE013EA0C1FCE
:101AF00000F025804FF00000F0BC81EA030101F006
:101B00000041BDE80081F0BCBDE8004181EA03016D
:101B100000F0AEB8F0BCBDE8004170B500F05AF876
:101B2000097EFC3E00F007B881EA03014FF0000097
:101B300001F00041704781EA030100F099B8F0BC60
:101B4000BDE800414FF0000021497047FFFDFBF95F
:101B5000F7F5F4F2F0EEEDEBE9E8E6E4E3E1E0DEE0
:101B6000DDDBDAD8D7D5D4D3D1D0CFCDCCCBCAC852
:101B7000C7C6C5C4C2C1C0BFBEBDBCBBBAB9B8B779
:101B8000B6B5B4B3B2B1B0AFAEADACABAAA9A8A86C
:101B9000A7A6A5A4A3A3A2A1A09F9F9E9D9C9C9B3A
:101BA0009A999998979796959594939392919190E5
:101BB0008F8F8E8E8D8C8C8B8B8A89898888878776
:101BC0008685858484838382828181800000FF07EB
:101BD0000000F87F0EF1020E2EF0030E5EF8046B8B
:101BE000364205D4012A43EB030515F5001F12D830
:101BF000012841EB010C1CF5001F0CD80ED14FEA57
:101C0000D17C15F5001F0CEB4C0C0CF1020C08BF3D
:101C10004CEBD37C04E04FF0080C01E04FEAD37C9E
:101C20000CEB4C0526FA05F606F00706B6F1040C97
:101C300006D20EEB860CBDE870404CF0010C6047FC
:101C4000DFE80CF0090B02024FF000414FF00000FA
:101C5000A1F5002170BD19461046012851EB010481
:101C600018BFD4F5001484BF002001F0004170BDFE
:101C70000808A0F500114FEA3101704743004FEA10
:101C8000D30C4FEA3C0C43401FBF40070CF160519E
:101C900013F0FE4F70471CF0006F03D100200CF0D2
:101CA000004170470CF0004343EA507010B540EA21
:101CB000CC0000F034F800BF000000924FEA0001B1
:101CC000FFF7D6BF4FF000414FF00000A1F5002113
:101CD00070470000014800F06DB800BF0000C07FF1
:101CE000C10DD1F19E0206DB4FEA002343F0004311
:101CF00023FA02F07047004207D54FEA4001B1F1E4
:101D0000FE4F02D24FF00000704710B500F007F808
:101D100049922480002070476FEA200070470EF13E
:101D2000020E2EF0030E5EF8044B244204D44FEA58
:101D30004102B2F17F4F11D84FEA4003B3F17F4F18
:101D40000CD80ED14FEAD07CB2F17F4F0CEB4C0C8B
:101D50000CF1020C08BF4CEBD17C04E04FF0080CF6
:101D600001E04FEAD17C0CEB4C0324FA03F404F0BD
:101D70000704B4F1040C06D20EEB840CBDE810404D
:101D80004CF0010C6047DFE80CF0070802024FF04E
:101D90000040A0F5800010BD0846420018BFD2F1F7
:101DA000807288BF00F0004010BDFF2141EAD05092
:101DB000C00570470CF00F03092B08BF082000F086
:101DC00051800A2B0BD0082B18BF704708BF1CF09E
:101DD000400F0AD04FF000004FF0000170471CF098
:101DE000400F18BF4FF0004070471CF0100F08D094
:101DF00020F0704300F07F4242EAD3014FEA437083
:101E0000704700F0604021F07F4242EA000201F09A
:101E10007F4040EA727070474FF0FF0212EAD052E2
:101E20001CBF92F0FF038B42C2BFD14200EBC150F6
:101E30007047002A0AD0002B0BD0002900F0004088
:101E4000A4BF40F0FE4040F40000704700F00040A6
:101E5000704743024FF00B0C18BF4CF0806C7FF4BE
:101E600039AF70471CF4801F11D01CF4E02F03D051
:101E70006FEACC31490070474FF04050EFF30082D9
:101E800022F0704242EA000282F3008870474FF06D
:101E900000007047B41E000800000020BC000000D5
:101EA00028010008701F0008BC000020F407000093
:101EB0004401000800366E01000000000000000030
:101EC00001020304060708090000000000000000EA
:101ED00000000000494E49540D3A3231630D0A3A70
:101EE0003431650D0A3A3631670D0A5A45524F3280
:101EF0000D3A310000310D0A3A330190C40D0A3A0F
:101F0000350000350D0A43414C4220343030300D4D
:101F10000204060800000000010203040102030499
:101F20000607080900000000000000000000000093
:101F300000000000000000000000000000000000A1
:101F400000001E1C1A1816F560D3F266B6B7E0F74B
:101F5000F60000000178DA809A14A8020000000060
:101F6000000E12B216B01C000000000000000000BD
:04000005080000ED02
:00000001FF
