:020000040800F2
:100000007007002089010008910100089301000891
:100010009501000897010008990100080000000000
:100020000000000000000000000000009B0100082C
:100030009D010008000000009F010008A1010008C8
:10004000A3010008A3010008A3010008A301000800
:10005000A3010008A301000881020008A301000811
:10006000A3010008A3010008A3010008A3010008E0
:10007000A3010008A3010008A3010008A3010008D0
:10008000A3010008A3010008A3010008A3010008C0
:10009000A3010008A3010008A3010008A3010008B0
:1000A000A3010008A3010008A3010008A3010008A0
:1000B000610C0008A301000800000000A301000873
:1000C000A30100080000000000000000A3010008D8
:1000D00000000000850F0008A301000800000000D8
:1000E000A3010008A3010008A301000800F002F822
:1000F00000F03AF80AA090E8000C82448344AAF188
:100100000107DA4501D100F02FF8AFF2090EBAE885
:100110000F0013F0010F18BFFB1A43F0010318473B
:100120008C100000AC100000103A24BF78C878C1D1
:10013000FAD8520724BF30C830C144BF04680C60ED
:10014000704700000023002400250026103A28BF35
:1001500078C1FBD8520728BF30C148BF0B60704739
:100160001FB51FBD10B510BD00F05AF81146FFF7BE
:10017000F7FF00F0EBFF00F078F803B4FFF7F2FFB1
:1001800003BC00F072FF000009488047094800479F
:10019000FEE7FEE7FEE7FEE7FEE7FEE7FEE7FEE737
:1001A000FEE7FEE704480549054A064B7047000094
:1001B000950B0008ED00000870010020700700207A
:1001C000700300207003002070474FF0000200B55C
:1001D000134694469646203922BFA0E80C50A0E86A
:1001E0000C50B1F12001BFF4F7AF090728BFA0E818
:1001F0000C5048BF0CC05DF804EB890028BF40F8E4
:10020000042B08BF704748BF20F8022B11F0804F25
:1002100018BF00F8012B7047704770477047704750
:10022000754600F029F8AE4605006946534620F0B1
:100230000700854618B020B5FFF7B4FFBDE82040A1
:100240004FF000064FF000074FF000084FF0000B92
:1002500021F00701AC46ACE8C009ACE8C009ACE845
:10026000C009ACE8C0098D4670470446AFF3008072
:100270002046FFF782FF0000004870471001002071
:1002800010B5012000F00CF810B1012000F002F8C8
:1002900010BD0000014908607047000014040140CF
:1002A000014600200022074B1B6803EA0102054BB0
:1002B00014331B680B4013B10AB1012000E0002089
:1002C00070470000000401402DE9F041024600257E
:1002D0000026002000230024002791F803C00CF022
:1002E0000F0591F803C00CF0100CBCF1000F03D007
:1002F00091F802C04CEA050591F800C0BCF1000F6E
:1003000031D0146800202BE04FF0010C0CFA00F300
:10031000B1F800C00CEA03069E4220D183004FF0E2
:100320000F0C0CFA03F7BC4305FA03FC4CEA040477
:1003300091F803C0BCF1280F06D14FF0010C0CFA64
:1003400000FCC2F814C00AE091F803C0BCF1480FE9
:1003500005D14FF0010C0CFA00FCC2F810C0401C93
:100360000828D1D31460B1F800C0BCF1FF0F34DD10
:10037000546800202EE000F1080C4FF0010808FA44
:100380000CF3B1F800C00CEA03069E4221D18300B1
:100390004FF00F0C0CFA03F7BC4305FA03FC4CEAD0
:1003A000040491F803C0BCF1280F05D100F1080C3A
:1003B00008FA0CF8C2F8148091F803C0BCF1480F99
:1003C00007D100F1080C4FF0010808FA0CF8C2F848
:1003D0001080401C0828CED35460BDE8F081016134
:1003E0007047000008B50121082000F03FFBC02045
:1003F000ADF8000010208DF8030003208DF80200F6
:1004000069460448FFF760FFC0210248FFF7E7FF95
:1004100008BD0000000C014070B504461848006893
:1004200020F07040164908600846006840F04050CF
:10043000086000201349086000251EE0E00920B193
:1004400001201049091D086003E000200D49091D25
:1004500008606006040E022000F052FE01200949E7
:100460000860022000F04CFE00200749C1F8980106
:10047000022000F045FE681CC5B2082DDEDB70BD11
:10048000000C0140988121420080214210B50F48A4
:10049000006820F070400D4908600846006840F090
:1004A0004050086001200A4908600A49C1F89801D3
:1004B000042000F025FE002005490860042000F01B
:1004C0001FFE00200349C1F8980110BD000C014037
:1004D0009C8121420080214210B50F48006820F025
:1004E00070400D4908600846006840F040500860C0
:1004F00000200A4908600A49C1F89C01042000F064
:10050000FFFD0120054908600549C1F89C01042050
:1005100000F0F6FD10BD0000000C01409881214262
:100520000080214210B500241448006820F070407B
:10053000124908600846006840F000400860012049
:100540000F49086000F0DCFD01200E49C1F8980158
:1005500000F0D6FD07E0601CC4B2FA2C03DDFFF703
:10056000BBFF012010BD0648803800680028F2D18A
:100570000349091F086000BFF4E70000000C0140B8
:100580009C8121420080214210B586B01821684626
:10059000FFF71BFE002404E0FF200DF80400601CA0
:1005A000C4B2142CF8DB14226946002000F0C6F90E
:1005B00006B010BD00B587B0182101A8FFF705FEF1
:1005C000142201A9002000F0B9F907B000BD000015
:1005D00070B504469C48844200D370BD9B48844259
:1005E0004DD3241A42F21070B4FBF0F00A21B0FB94
:1005F000F1F201FB120096490D5C964908782946F4
:1006000000F0BDF94FF47A70B4FBF0F00A21B0FBB2
:10061000F1F201FB12008E490D5C8E4948782946A3
:1006200000F0ADF96420B4FBF0F00A21B0FBF1F268
:1006300001FB120086490D5C86498878294600F046
:100640009EF90A20B4FBF0F00A21B0FBF1F201FBA5
:1006500012007F490D5C7F49C878294600F08FF968
:100660000A20B4FBF0F100FB11407949085C40F02E
:10067000080578490879294600F081F9E2E042F25C
:100680000F70844249D9401CB4FBF0F00A21B0FB42
:10069000F1F201FB12006E490D5C6E4908782946A3
:1006A00000F06DF94FF47A70B4FBF0F00A21B0FB62
:1006B000F1F201FB120066490D5C66494878294653
:1006C00000F05DF96420B4FBF0F00A21B0FBF1F218
:1006D00001FB12005E490D5C5E498878294600F0F6
:1006E0004EF90A20B4FBF0F00A21B0FBF1F201FB55
:1006F000120057490D5C5749C878294600F03FF968
:100700000A20B4FBF0F100FB114051490D5C514946
:100710000879294600F033F994E0B4F57A7F3AD3AA
:100720004FF47A70B4FBF0F00A21B0FBF1F201FB58
:10073000120047490D5C47494878294600F01FF9E7
:100740006420B4FBF0F00A21B0FBF1F201FB1200CF
:100750003F490D5C3F498878294600F010F90A208E
:10076000B4FBF0F00A21B0FBF1F201FB12003849B2
:100770000D5C3849C878294600F001F90A20B4FB1D
:10078000F0F100FB114032490D5C324908792946ED
:1007900000F0F5F856E0632C2AD96420B4FBF0F0A1
:1007A0000A21B0FBF1F201FB120029490D5C294935
:1007B0008878294600F0E3F80A20B4FBF0F00A211B
:1007C000B0FBF1F201FB120021490D5C2149C87810
:1007D000294600F0D4F80A20B4FBF0F100FB1140E8
:1007E0001B490D5C1B490879294600F0C8F829E02F
:1007F000092C1BD90A20B4FBF0F00A21B0FBF1F25E
:1008000001FB120012490D5C1249C878294600F01C
:10081000B6F80A20B4FBF0F100FB11400C490D5C66
:100820000C490879294600F0AAF80BE00A20B4FB2D
:10083000F0F100FB114006490D5C06490879294694
:1008400000F09DF800BFC8E6400D0300A08601003F
:10085000190000201400002010B50B2202490020CE
:1008600000F06CF810BD00002E00002008B501213A
:10087000082000F0FBF84FF49070ADF80000102055
:100880008DF8030003208DF8020069460648FFF743
:100890001BFD4FF480710448FFF7A1FD20210248A1
:1008A000FFF79DFD08BD0000000C014010B54FF49E
:1008B000A06000F039F810BD70B5002100230F22B0
:1008C000C47804B3154C246804F4E064C4F5E0640F
:1008D000210AC1F10403CA40447804FA03F1847880
:1008E0001440214309010E4C0678A155047804F008
:1008F0001F050124AC4005786D11AD0005F1E02520
:10090000C5F8004109E0047804F01F050124AC405B
:10091000044D0678761145F8264070BD0CED00E0D8
:1009200000E400E080E100E002490143024A116076
:10093000704700000000FA050CED00E070B50446B9
:100940000D461646602000F027F804F03F042046CC
:100950003246294600F048F870BD70B505460C4691
:1009600005F01F0040F04005284600F015F804F09F
:10097000070040F07004204600F00EF870BD70B51E
:1009800004460D46602000F007F804F03F042046BE
:10099000294600F012F870BD10B50446FFF776FD49
:1009A0007020FFF739FDFFF7BDFD2046FFF734FD4E
:1009B000FFF7B8FDFFF790FD10BD70B505460C467A
:1009C000FFF764FD7020FFF727FDFFF7ABFD28461A
:1009D000FFF722FDFFF7A6FD2046FFF71DFDFFF7FD
:1009E000A1FDFFF779FD70BD2DE9F04107460C46EA
:1009F0001546FFF74BFD7020FFF70EFDFFF792FD48
:100A00003846FFF709FDFFF78DFD002607E0207847
:100A1000FFF702FDFFF786FD641C701CC6B2AE42F4
:100A2000F5DBFFF759FDBDE8F081000029B1064A6A
:100A3000D2690243044BDA6104E0034AD26982437B
:100A4000014BDA61704700000010024029B1064AEC
:100A500012690243044B1A6104E0034A126982439B
:100A6000014B1A61704700000010024029B1064A8C
:100A700092690243044B9A6104E0034A92698243FB
:100A8000014B9A61704700000010024029B1064AEC
:100A9000D2680243044BDA6004E0034AD26882431E
:100AA000014BDA60704700000010024010B500F002
:100AB00001F810BD0CB50020019000902A48006894
:100AC00040F480302849086000BF2748006800F4DF
:100AD000003000900198401C0190009818B90198CE
:100AE000B0F5A06FF1D12048006800F4003010B1DB
:100AF0000120009001E0002000900098012831D1F1
:100B000019484068184948600846406848600846E7
:100B1000406848600846406820F47C1048600846F9
:100B2000406840F4981048600846006840F08070C3
:100B3000086000BF0C48006800F000700028F9D081
:100B40000948406820F003000749486008464068AB
:100B500040F00200486000BF0348406800F00C000D
:100B60000828F9D10CBD000000100240042808D16B
:100B70004FF0E021096941F004014FF0E0221161DA
:100B800007E04FF0E021096921F004014FF0E02275
:100B90001161704710B51448006840F00100124917
:100BA000086008464068114908400F4948600846F7
:100BB00000680F4908400C4908600846006820F4A6
:100BC000802008600846406820F4FE0048604FF42A
:100BD0001F0088600020C862FFF768FF4FF00060C8
:100BE0000449086010BD0000001002400000FFF83A
:100BF000FFFFF6FE08ED00E00EB501210846FFF705
:100C000015FF4FF0804000F05DF842F21070ADF833
:100C100004004720ADF800000020ADF8020069464E
:100C20004FF0804000F05CF90121880700F038F8AF
:100C300001221146900700F04AF90121880700F0CF
:100C400035F801210846FFF7F1FE01210420FFF7E6
:100C5000EDFE0121014800F029F80EBD000800401A
:100C600010B50121880700F021F918B1012188078A
:100C700000F019F810BD08B54FF4A060FFF754FE5E
:100C80001C208DF8000000208DF8010003208DF855
:100C9000020001208DF803006846FFF70DFE08BD35
:100CA000CA4302827047CA430282704721B1028858
:100CB00042F00102028004E002884FF6FE731A40FF
:100CC0000280704710B504466848844208D101216B
:100CD000C014FFF7DBFE0021E014FFF7D7FEC4E0ED
:100CE000B4F1804F08D101210846FFF7AFFE002183
:100CF0000120FFF7ABFEB8E05D48844208D1012136
:100D00000220FFF7A3FE00210220FFF79FFEACE0C8
:100D10005848844208D101210420FFF797FE0021A2
:100D20000420FFF793FEA0E05348844208D101213C
:100D30000820FFF78BFE00210820FFF787FE94E0D4
:100D40004E48844208D101211020FFF77FFE002188
:100D50001020FFF77BFE88E04948844208D101213A
:100D60002020FFF773FE00212020FFF76FFE7CE0BC
:100D70004448844208D101214014FFF787FE002136
:100D80006014FFF783FE70E03F48844209D10121DF
:100D9000C804FFF77BFE00214FF40020FFF776FE2A
:100DA00063E03A48844209D101210805FFF76EFE4D
:100DB00000214FF48010FFF769FE56E0344884426A
:100DC00009D101214805FFF761FE00214FF4001011
:100DD000FFF75CFE49E02F48844208D10121402002
:100DE000FFF734FE00214020FFF730FE3DE02A48A7
:100DF000844208D101218020FFF728FE00218020B5
:100E0000FFF724FE31E02548844208D101218015F6
:100E1000FFF71CFE0021A015FFF718FE25E0204873
:100E2000844209D101210804FFF730FE00214FF46C
:100E30008030FFF72BFE18E01A48844209D10121C7
:100E40004804FFF723FE00214FF40030FFF71EFE99
:100E50000BE01548844208D101218804FFF716FEF3
:100E600000214FF48020FFF711FE10BD002C01403F
:100E70000004004000080040000C0040001000404A
:100E80000014004000340140004C0140005001407B
:100E90000054014000180040001C004000200040A9
:100EA00000400140004401400048014030B5024686
:100EB000002000230024158A05EA0103958905EA2C
:100EC000010413B10CB1012000E0002030BD1AB1C3
:100ED00083890B43838102E083898B43838170473D
:100EE000002202881D4B98420ED01D4B98420BD019
:100EF000B0F1804F08D01B4B984205D01A4B984256
:100F000002D01A4B984204D14FF68F731A404B8887
:100F10001A43174B984207D0164B984204D04FF60D
:100F2000FF431A40CB881A4302808B8883850B8845
:100F300003850A4B98420BD0094B984208D00E4BC0
:100F4000984205D00D4B984202D00D4B984201D1EA
:100F50000B7A03860123838270470000002C014036
:100F6000003401400004004000080040000C004034
:100F700000100040001400400040014000440140C7
:100F80000048014010B540F225511D4800F03EF8E0
:100F900010B31B4800F064F8C4B21A48008800F48B
:100FA0000040C8B91748008800F4804060B10A2C9E
:100FB00003D000201349088020E01248008840F444
:100FC00000401049088019E00D2C06D10D4800881A
:100FD00040F480400B49088010E00A480088C0F3C4
:100FE0000D0009490C5407480088401C0549088039
:100FF00008460088C72801DD0020088010BD0000D9
:1010000000380140440000204800002070B502462E
:10101000002400230025002040F66A16B14200D1CA
:1010200000BFC1F3421501F01F03012606FA03F3C6
:10103000012D02D19689334006E0022D02D1168A95
:10104000334001E0968A33400C12012606FA04F47C
:101050001688344013B10CB1012000E0002070BDAF
:1010600001468888C0F30800704700BF7047000041
:1010700010B56FF00400FFF779FD0A4800680A49CF
:10108000B0FBF1F0094908700846007800EB400118
:10109000C1EBC0104FF6FF7101EAC000044908809F
:1010A00010BD00000000002000127A003A0000206D
:1010B0003C0000200146114A12884A434FF0E023C9
:1010C0005A6100229A611A46126942F001021A61BD
:1010D00000BF4FF0E022106900F001021AB100F4E5
:1010E0008032002AF5D04FF0E022126922F001028E
:1010F0004FF0E0231A6100229A6170473C00002003
:101100000146114A12784A434FF0E0235A61002207
:101110009A611A46126942F001021A6100BF4FF04B
:10112000E022106900F001021AB100F48032002AB6
:10113000F5D04FF0E022126922F001024FF0E023D7
:101140001A6100229A6170473A00002042F20F743F
:10115000FFF78EFFFFF7AAFBFFF78DFDFFF74CFDB2
:10116000FFF784FBFFF73EF900210820FFF7F5FBAE
:101170004FF49670FFF79EFFFFF706FA4FF47A7070
:10118000FFF798FFFFF716FAFFF766FB0AE020214A
:101190000548FFF724F92046FFF71AFA641E3220AB
:1011A000FFF788FFF3E70000000C0140CC110008B6
:1011B0000000002048000000280100081412000868
:1011C00048000020280700004401000800366E0196
:1011D00000000000000000000102030406070809E7
:1011E0001E1C1A1816F560D3F266B6B7E0F7F600C3
:1011F00000000178DA809A14A80200000000000EB6
:1012000012B216B01C000000000000000000000038
:0412100000000000DA
:04000005080000ED02
:00000001FF
