:020000040800F2
:10000000B008002089010008910100089301000850
:100010009501000897010008990100080000000000
:100020000000000000000000000000009B0100082C
:100030009D010008000000009F010008A1010008C8
:10004000A3010008A3010008A3010008A301000800
:10005000A3010008A301000835040008A30100085B
:10006000A3010008A3010008A3010008A3010008E0
:10007000A3010008A3010008A3010008A3010008D0
:10008000A3010008A3010008A3010008A3010008C0
:10009000A3010008A3010008A3010008A3010008B0
:1000A000A3010008A3010008A3010008A3010008A0
:1000B000D5110008E512000800000000A3010008A7
:1000C000A30100080000000000000000A3010008D8
:1000D0000000000025160008A30100080000000031
:1000E000A3010008A3010008A301000800F002F822
:1000F00000F03AF80AA090E8000C82448344AAF188
:100100000107DA4501D100F02FF8AFF2090EBAE885
:100110000F0013F0010F18BFFB1A43F0010318473B
:10012000BC240000DC240000103A24BF78C878C149
:10013000FAD8520724BF30C830C144BF04680C60ED
:10014000704700000023002400250026103A28BF35
:1001500078C1FBD8520728BF30C148BF0B60704739
:100160001FB51FBD10B510BD00F0BAF81146FFF75E
:10017000F7FF01F089FB00F0D8F803B4FFF7F2FFB6
:1001800003BC01F02DFB00000948804709480047E7
:10019000FEE7FEE7FEE7FEE7FEE7FEE7FEE7FEE737
:1001A000FEE7FEE704480549054A064B7047000094
:1001B000D1100008ED000008B0020020B0080020B7
:1001C000B0040020B0040020704710B5431C02E0CA
:1001D00010F8011B71B18107FAD14FF0013202C84A
:1001E0008C1A8C4314EAC211F9D0C01A0A0603D043
:1001F000C01E10BDC01A10BD0A0401D0801E10BD63
:100200000902FCD0401E10BD4FF0000200B513469D
:1002100094469646203922BFA0E80C50A0E80C5026
:10022000B1F12001BFF4F7AF090728BFA0E80C50D7
:1002300048BF0CC05DF804EB890028BF40F8042BD0
:1002400008BF704748BF20F8022B11F0804F18BF3D
:1002500000F8012B704700004FF0013C50F8042BD0
:1002600051F8043B9A4221D1A2EB0C03934313EAC9
:10027000CC1317D150F8042B51F8043B9A4215D1F6
:10028000A2EB0C03934313EACC130BD150F8042BCD
:1002900051F8043B9A4209D1A2EB0C03934313EAB1
:1002A000CC13DBD04FF00000704700BFD01A01BA6A
:1002B000B1FA81F101F0180122FA01F0CB40C1F14D
:1002C0002001DBB2C0B2C01A2CFA01F3D11A91435B
:1002D00011EAC311E6D17047704770477047704705
:1002E000754600F029F8AE4605006946534620F0F1
:1002F0000700854618B020B5FFF754FFBDE8204041
:100300004FF000064FF000074FF000084FF0000BD1
:1003100021F00701AC46ACE8C009ACE8C009ACE884
:10032000C009ACE8C0098D4670470446AFF30080B1
:100330002046FFF722FF0000004870474C020020D3
:10034000044B01228240186809B1104300E0904339
:10035000186070470074004010B586B00121042079
:1003600000F0CCFD0121480700F0B0FD1020ADF8F1
:10037000100003208DF8120000248DF8134004A90A
:10038000084800F079F83C20CDE900040294694661
:100390000020039400F008F801210020FFF7D0FFAF
:1003A00006B010BD0008014030B5084C236840F687
:1003B000FE7282409343D1E900252A43D1E90251DC
:1003C0000D432A4382401A43226030BD007400402E
:1003D000034A08B5104408300090016008BD0000D1
:1003E000007400400209054B012090400029196863
:1003F00001D0014300E0814319607047047400405C
:1004000010B50A4901F0AEFF0C2102F0A9F8084925
:1004100001F0C6FE01F086FF81B20020FFF7D8FF91
:100420000121BDE810400020FFF7DCBF0000C842FA
:100430000000A54310B5012000F00EF8002804D0FC
:10044000BDE81040012000F001B810BD014908606E
:100450007047000014040140064A0146002012685B
:10046000044B0A4014331B680B4202D0002A00D010
:100470000120704700040140F0B5CC78002204F060
:100480000F03E40601D58C7823430C784FF00F0C52
:1004900014F0FF0F4FF0010E1BD005680E880EFA06
:1004A00002F42640A64210D196000CFA06F725EA7F
:1004B000070703FA06F5CE783D43282E02D0482ED2
:1004C00002D002E0446100E00461521C082AE5D336
:1004D00005600A88FF2A1CD94468002202F1080638
:1004E0000EFA06F50E882E40AE420ED196000CFA9A
:1004F00006F7BC4303FA06F7CE783C43282E00D11A
:100500004561CE78482E00D10561521C082AE5D3FA
:100510004460F0BDF0B5144C002801DAE36900E056
:100520006368450D2E0185B2C0F30157B540C0F395
:100530000342032F05D0C6020AD503269640B343D3
:1005400007E023F07062636823F07063636002E089
:10055000AB4343F0706201B12A43002801DAE26143
:10056000F0BD6260F0BD00000000014002460020C6
:1005700092680A4200D001207047416170470161D2
:100580007047000070B50C4D2888010411D5C0F3E8
:100590000B0400200146094A094B641C04E0165C68
:1005A0001E541154401C80B2A042F8D32980002070
:1005B00070BDFE2070BD0000B80000208401002046
:1005C000BC00002010B5FFF7DDFF00280FD1134A53
:1005D0001349107801280BD0022808D1487889786F
:1005E000C0EB00200844322150604843906010BDA9
:1005F00048784B79303800EB4004C4EBC01003EB73
:10060000C0048B7864204343C87800EB800003EB80
:1006100040002044A0F5A050D038E4E714000020AA
:10062000BC000020074910B5884203DC4FF081412F
:10063000884200DA0846044901F0B2FDBDE81040E6
:10064000FFF7DEBE0000A0410000204110B501F020
:100650004FFC0022064B01F0F3FA0022054B01F09B
:1006600047FA01F013FABDE81040FFF7DBBF0000C6
:1006700000004F40000010402DE9F05F7749002551
:1006800001260978DFF8D881DFF8D891764C012966
:1006900013D0022951D101286DD002286CD0032833
:1006A0004BD16E483E30FFF790FDDFF8B0B100F05F
:1006B000FF0A00270BF13E0BC0E001281CD00228E6
:1006C0003DD0032839D1DFF894B14FF0070A002755
:1006D0000BF1300B1BF8070000F094FF7F1CFFB2FA
:1006E0005745F7D3A8F8005025804F46A9F8006079
:1006F000FFF748FFF0B353E0DFF860B14FF0070AAF
:1007000000270BF1370B1BF8070000F07BFF7F1C65
:10071000FFB25745F7D3A8F8005025804F46A9F8F7
:100720000060FFF72FFF28B94C4950481D31FFF7F3
:1007300093FD80BB20880028F3D0BDE8F09FDFF850
:100740001CB14FF0070A00270BF1290B1BF807001B
:1007500000F058FF7F1CFFB25745F7D3A8F80050B0
:1007600025804F46A9F80060FFF70CFF48B93B49C8
:10077000113102E009E017E038E03C48FFF76CFD7A
:1007800048B920880028EFD0D7E7344937481731D7
:10079000FFF762FD20B1A8F8005026803D80CCE72D
:1007A00020880028A4D0C8E72C480C30FFF70DFDA6
:1007B000DFF8A8B000F0FF0A00270BF10C0B05E0F2
:1007C0001BF8070000F01EFF7F1CFFB25745F7D350
:1007D000A8F8005025804F46A9F80060FFF7D2FE28
:1007E0000028D8D020880028F8D0A6E71B4823305E
:1007F000FFF7EBFCDFF864B000F0FF0A00270BF115
:10080000230B05E01BF8070000F0FCFE7F1CFFB285
:100810005745F7D3A8F8005025804F46A9F8006047
:10082000FFF7B0FE0028B6D020880028F8D084E773
:100830001BF8070000F0E6FE7F1CFFB25745F7D318
:10084000A8F8005025804F46A9F80060FFF79AFEEF
:100850000028A0D020880028F8D06EE714000020DF
:10086000840000208600002088000020BC000020BA
:1008700010B580210748FFF779FE30B10121064805
:10088000FFF774FE18B1FF2010BD312010BD3220DB
:1008900010BD000000080140000C014038B50121E6
:1008A000082000F02BFBC020ADF8000010208DF8D0
:1008B00003000320054C8DF8020069462046FFF72F
:1008C000DBFDC0212046FFF75AFE38BD000C014079
:1008D0002DE9F04105461648016821F0704101609C
:1008E000016841F040510160124E0027C6F898712E
:1008F0003C464FF00108280602D5C6F89C8101E06D
:10090000C6F89C716806050E022000F0A3FFC6F829
:100910009881022000F09EFFC6F89871022000F036
:1009200099FF641CE4B2082CE5D3BDE8F081000017
:10093000000C01400080214270B50D48016821F093
:1009400070410160016841F040510160094C012093
:10095000C4F89C01C4F89801042004F5CC7400F09C
:1009600079FF00256560042000F074FF256070BDEC
:10097000000C0140008021420E4810B5016821F0B2
:1009800070410160016841F0405101600A4C002053
:10099000C4F89801C4F89C01042004F5CC7400F05C
:1009A00059FF012020606060BDE81040042000F085
:1009B00051BF0000000C01400080214270B5134877
:1009C0000024016821F070410160016841F000419C
:1009D00001600F4D0126C5F89C61304600F03AFFDA
:1009E000C5F89861012000F035FF07E0641CE4B20F
:1009F000FA2C03D9FFF7C0FF012070BDD5F81C0108
:100A00000028F3D1C5F8980170BD0000000C01402A
:100A10000080214238B501210C2000F06FFA01213D
:100A2000084600F06BFA01211248FFF773FD8020A1
:100A3000ADF8000001248DF8024048258DF80350E0
:100A400069460D48FFF718FDADF800408DF80240EB
:100A50008DF8035069460948FFF70EFD084900204C
:100A60000870084908700849087008490870084962
:100A7000088038BD0002300000080140000C014031
:100A80007000002071000020720000207300002020
:100A90008A0000202DE9F041254D2978FF2944D016
:100AA000244C4FF4FA7631290DD120212046FFF74E
:100AB00066FD0120FFF7E0FD304600F0B1FE202189
:100AC0002046FFF75AFD28781B4F322814D1012108
:100AD0002046FFF74BFD78B1387868B920212046D1
:100AE000FFF74DFD0220FFF7C7FD304600F098FEEE
:100AF00020212046FFF741FD3878012813D120211D
:100B00002046FFF73CFD00F019F80320FFF7B4FD85
:100B10000020387000F027F8304600F081FE2021D8
:100B20002046FFF72AFDFF202870BDE8F081000075
:100B300073000020000C01407400002000B587B055
:100B400018216846FFF760FB00206A46FF21115418
:100B5000401CC0B21428FAD314226946002000F0C9
:100B60003FF907B000BD00B587B018216846FFF710
:100B70004BFB14226946002000F032F907B000BD9B
:100B80000B220249002000F02BB900009D0000203C
:100B90007CB500210446009101910A280FD205225C
:100BA0006946162000F01CF9074D6E1F2978F07871
:100BB00000F035F9295D307900F031F901E000F0FD
:100BC00005F8FFF7DDFF7CBD930000202DE9FC4711
:100BD000044600200090019005226946162000F08E
:100BE000FFF8404884424FD23F4E41100A25771FFC
:100BF00042F210704FF064084FF47A798C4231D38E
:100C000049420C44B4FBF0F0B0FBF5F105FB1100D8
:100C1000315C387800F003F9B4FBF9F0B0FBF5F182
:100C200005FB1100315C787800F0F9F8B4FBF8F0BE
:100C3000B0FBF5F105FB1100315CB87800F0EFF87E
:100C4000B4FBF5F0B0FBF5F105FB1100315CF87871
:100C500000F0E5F8B4FBF5F005FB1040305C40F027
:100C600008010EE042F20F718C420FD9B4FBF0F094
:100C7000B0FBF5F105FB1100315C387800F0CFF8DE
:100C800006E0387900F0CBF8BDE8FC874C450AD384
:100C9000B4FBF9F0B0FBF5F105FB1100315C78789D
:100CA00000F0BDF801E0632C0AD9B4FBF8F0B0FB0A
:100CB000F5F105FB1100315CB87800F0B0F801E007
:100CC000092C09D9B4FBF5F0B0FBF5F105FB1100D7
:100CD000315CF87800F0A3F8B4FBF5F005FB1040A8
:100CE000315CCEE7400D0300930000200B22024947
:100CF000002000F075B80000A800002010B5FFF734
:100D000065FFBDE81040FFF7F1BF000038B50121D5
:100D1000082000F0F3F84FF49070ADF800001020B8
:100D20008DF8030003200C4C8DF802006946204624
:100D3000FFF7A2FB0121084600F0E0F80121074877
:100D4000FFF7E8FBA1152046FFF719FC20212046FC
:100D5000FFF715FC38BD0000000C01400002300018
:100D60004FF4A06000F032B830B50F23C27801789C
:100D70000125F2B1144A126801F1E02102F4E062A7
:100D8000C2F5E062120AC2F10404D3404278A240E4
:100D900084781C401443220181F80024007800F07C
:100DA0001F018D404009800000F1E020C0F8005193
:100DB00030BD01F01F0085404809800000F1E020AF
:100DC000C0F8805130BD00000CED00E0024908433E
:100DD00002490860704700000000FA050CED00E0D1
:100DE00070B5064614460D46602000F025F806F062
:100DF0003F0022462946BDE8704000F047B810B5D4
:100E000000F01F000C4640F0400000F015F804F020
:100E10000700BDE8104040F0700000F00DB870B55C
:100E200005460C46602000F007F805F03F0021461B
:100E3000BDE8704000F012B810B50446FFF77CFD25
:100E40007020FFF745FDFFF7B9FD2046FFF740FD95
:100E5000FFF7B4FDBDE81040FFF78EBD70B50D463D
:100E60000446FFF769FD7020FFF732FDFFF7A6FD8E
:100E70002046FFF72DFDFFF7A1FD2846FFF728FDCF
:100E8000FFF79CFDBDE87040FFF776BD70B51646D4
:100E90000D460446FFF750FD7020FFF719FDFFF7E0
:100EA0008DFD2046FFF714FDFFF788FD002407E0C5
:100EB0002878FFF70DFDFFF781FD641CE4B26D1C7F
:100EC000B442F5D3BDE87040FFF756BD044A00298F
:100ED000D16901D0014300E08143D1617047000036
:100EE00000100240044A0029116901D0014300E0CA
:100EF000814311617047000000100240044A00293C
:100F0000916901D0014300E0814391617047000085
:100F100000100240044A0029D16801D0014300E0DA
:100F20008143D160704700000010024030B5224A72
:100F30005168224B11F00C0103D0042901D008297B
:100F400001D0036015E05168546801F470114FF04E
:100F5000020514F4803F05EB914107D0D46A04F0F8
:100F60000F04641CB3FBF4F34B43EAE7144B5943FF
:100F7000016051680F2303EA1111124B5C5C016898
:100F8000E14041605468072505EA14241C5D21FAFC
:100F900004F48460546805EAD4241B5DD940C16020
:100FA0005268032303EA9232064B1B1F9A5CB1FB83
:100FB000F2F1016130BD00000010024000127A0021
:100FC00000093D0060000020F8B501210820FFF76E
:100FD00095FF1820ADF800001025134F8DF8035031
:100FE00003268DF8026069463846FFF745FA01216D
:100FF0000420FFF783FFEC02ADF800408DF80350AA
:101000000A4D8DF8026069462846FFF735FA2146F9
:101010002846FFF7B2FA08213846FFF7AEFA10214A
:101020003846FFF7AAFAF8BD000C0140000801405D
:101030000CB500221F4800920192016841F48031F2
:1010400001604FF4A063016801F40031019100993F
:10105000491C0091019911B900999942F3D1016895
:10106000890324D5012101914168416041684160B3
:1010700041684160416821F47C114160416841F45C
:1010800098114160016841F0807101600168890137
:10109000FCD5416821F003014160416841F0020143
:1010A00041604168C1F381010229FAD10CBD01926E
:1010B0000CBD0000001002404FF0E0210428086938
:1010C00003D020F004000861704740F00400FAE704
:1010D000104810B5016841F00101016041680E4AF5
:1010E0001140416001680D4A11400160016821F41E
:1010F00080210160416821F4FE0141604FF41F012D
:1011000081600021C162FFF793FF05494FF0006045
:10111000086010BD001002400000FFF8FFFFF6FE5F
:1011200008ED00E01048016841F0010101604168EC
:101130004160416841F4801141604168416001684B
:1011400041F08071016001688901FCD5416821F09E
:1011500003014160416841F0020141604168C1F30F
:1011600081010229FAD17047001002403EB50121E9
:101170000846FFF7ABFE4FF08044204600F026F90A
:1011800042F21071ADF804101721ADF800100021E3
:10119000ADF802106946204600F0E6F9012120462C
:1011A00000F004F901221146204600F0D3F9012194
:1011B000204600F001F901210846FFF787FE0121D2
:1011C0000420FFF783FE0121014800F0F5F83EBD41
:1011D0000008004070B501218C07204600F0AEF9F0
:1011E000002865D00121204600F0E3F8FFF740FB1E
:1011F000002101242F4BFF282CD01A7822B15879D6
:1012000032281AD099832BE05A8B521C92B25A83FF
:101210009D8B6D1C9D83012A02D0022A02D01FE003
:1012200098701DE058709A78824219D1DA705A711C
:101230009970597059831C7012E0988B401C80B2D1
:101240009883C8280CD3187950B91C719983FF2052
:10125000587105E0187800B1197099705970598368
:10126000D889401C80B2D881DA88521C92B2DA80C8
:101270009D89012D04D11D89AA4201D35C819981E8
:101280001A8A012A08D1A0F16402642A00D2598284
:10129000C82801D95C82D981D88A012808D1988AC6
:1012A000401C80B29882C82802D31C83D9829982BC
:1012B00070BD00007000002008B54FF4A060FFF77B
:1012C00085FD1C208DF8000002208DF80100002013
:1012D0008DF8020001208DF803006846FFF744FDF9
:1012E00008BD000010B50D4C0121204600F026F984
:1012F000002811D00A48018841F400410180A1155D
:101300000848FFF73CF90121204600F052F8BDE8FB
:101310001040002000F036B810BD0000000400406E
:10132000B8000020000C01407FB50D4604460121A5
:101330000220FFF7CBFDADF80440ADF800500024CB
:101340000F4DADF80640ADF802406946284600F062
:101350000BF90121284600F02CF8012211462846FD
:1013600000F0F8F81D208DF80C0001208DF80D001C
:101370008DF80E408DF80F0003A8FFF7F5FC7FBD38
:101380000004004010B5084A4FF0000130B1144687
:10139000104600F0E7F80121204600E01046BDE8C5
:1013A000104000F009B8000000040040C943018269
:1013B0007047C943018270470029018802D041F07B
:1013C000010101E021F00101018070474B4910B596
:1013D000884202D10121C41486E0B0F1804F09D0C7
:1013E000474988420DD101210220FFF77BFD0021F2
:1013F000022064E001210846FFF774FD002101206E
:101400005DE04049884206D101210420FFF76AFDD2
:101410000021042053E03C49884206D101210820E4
:10142000FFF760FD0021082049E03849884206D1D5
:1014300001211020FFF756FD002110203FE0344924
:10144000884206D101212020FFF74CFD00212020F9
:1014500035E03049884202D10121441444E02E494C
:10146000884202D10121CC043EE02C49884202D1BD
:1014700001210C0538E02A49884202D101214C059E
:1014800032E02849884206D101214020FFF72AFD99
:101490000021402013E02449884206D10121802008
:1014A000FFF720FD0021802009E0204988420AD171
:1014B000841501212046FFF715FD00212046BDE8D7
:1014C0001040FFF70FBD1A49884202D101210C04D8
:1014D0000AE01849884202D101214C0404E016496F
:1014E00088420AD101218C042046FFF713FD2046D3
:1014F000BDE810400021FFF70DBD10BD002C0140DC
:101500000004004000080040000C004000100040B3
:101510000014004000340140004C014000500140E4
:101520000054014000180040001C00400020004012
:1015300000400140004401400048014002460020B4
:10154000138A92890B4202EA010202D0002A00D0DB
:1015500001207047002A828901D00A4300E08A43B3
:10156000828170478184704730B502881B4C1C4DC6
:10157000A0420DD0A8420BD0B0F1804F08D0194B3B
:10158000984205D0184B984202D0184B984203D18C
:1015900022F070034A881A43154B984206D0154B27
:1015A000984203D022F44073CA881A4302808A8882
:1015B00082850A880285A0420AD0A84208D00E4A35
:1015C000904205D00D4A904202D00D4A904201D17E
:1015D000097A01860121818230BD0000002C014082
:1015E000003401400004004000080040000C0040AE
:1015F0000010004000140040004001400044014041
:101600000048014010B5064C0146204600F0E4F8C1
:101610008021204600F048F80028F9D010BD0000D5
:101620000038014070B5164C40F22551204600F0BC
:1016300042F800281CD0204600F0CAF8114DC4B270
:101640002A88100414D410484FF48071642A10D2F0
:10165000FEF793FF00210D48FFF784FF288810B99B
:101660000120FFF78FFE0A4928880C54401C28806F
:1016700070BD42F400422A80BDE87040FEF77FBF93
:1016800000380140B8000020000C01400004004078
:10169000840100200029818902D041F4005101E039
:1016A00021F40051818170470246002012880A42CD
:1016B00000D00120704770B501F01F0501260024FD
:1016C000C1F3421306FA05F2012B0FD0022B0FD003
:1016D000838A4FEA11210088134206FA01F600EAD4
:1016E000060001D000B10124204670BD8389F0E7D7
:1016F000038AEEE710B5C1F3421301F01F04012184
:10170000A140012B07D0022B07D01430002A026819
:1017100005D00A4304E00C30F8E71030F6E78A43BE
:10172000026010BD30B50446008A85B00D464CF607
:10173000FF710840E98801432182A0894EF6F31128
:101740000840A9882A8911436A8902431143A1816B
:10175000A08A4FF6FF410840A9890143A18268464B
:10176000FFF7E4FB1948844201D1039800E0029896
:10177000A189090400EBC00101EB0010296801D523
:10178000490000E08900B0FBF1F06422B0FBF2F107
:1017900009010B096FF018056B4300EB8300A38967
:1017A0001D044FF0320306D503EBC000B0FBF2F08E
:1017B00000F0070005E003EB0010B0FBF2F000F0D2
:1017C0000F000843208105B030BD00000038014003
:1017D0008088C0F308007047C1F30801818070471A
:1017E0007047000010B56FF00400FFF765FC094872
:1017F00009490068B0FBF1F00849C0B200EB4002B3
:101800000870C2EBC0104FF6FF7202EAC0004880B9
:1018100010BD00000000002000127A00B40000207B
:101820000B49498848434FF0E021486100238B6110
:10183000086940F0010008610869C20701D0C003CF
:10184000FAD5086920F0010008618B61704700003B
:10185000B40000200B49097848434FF0E02148616B
:1018600000238B61086940F0010008610869C20724
:1018700001D0C003FAD5086920F0010008618B612E
:1018800070470000B4000020FFF74CFCFFF7AAFFF0
:10189000FFF766FAFFF710FDFFF768FC4FF4E13041
:1018A00000F08CF8FFF732FAFEF7F8FFFEF754FD70
:1018B000FFF7B0F8FFF788FB00210820FFF79FFA39
:1018C000354D20212846FEF758FEFFF737F94FF433
:1018D000FA70FFF7A5FFFFF746F920212846FEF72B
:1018E0004CFE0020FEF7B2FE2C4901202E4A087063
:1018F0002B492E4C2E4E08802A4900200880FF21BB
:1019000011702060306008212846FEF736FEDFF8AF
:10191000A4904FF4004739464846FEF72EFE1021AA
:101920002846FEF72AFEBA464FF44878224FFEF7C3
:1019300049FE2068404504D308212846FEF71FFED3
:101940000BE0642805D910212846FEF718FE08216F
:1019500004E008212846FEF710FE10212846FEF775
:101960000CFE206851466428484602D9FEF707FE5F
:1019700001E0FEF702FEFFF78DF8388828B1012854
:10198000D5D13068FFF7BAF9D1E72068FFF700F941
:101990002068FEF75BFECAE7000C0140140000203F
:1019A000800000207E00002073000020180000202E
:1019B0001C000020000801408200002030B50546D0
:1019C00087B0012144F20500FFF798FA4FF4007048
:1019D000ADF8100003208DF812001820274C8DF868
:1019E000130004A92046FEF747FD2015ADF81000AE
:1019F00004208DF8130004A92046FEF73DFD2520A4
:101A00008DF8140000248DF815408DF81640012043
:101A10008DF8170005A8FFF7A7F90095ADF8084065
:101A20000C20174DADF80440ADF80A00ADF80640A3
:101A3000ADF80C4069462846FFF774FE012240F2DB
:101A400025512846FFF756FE01212846FFF722FEC2
:101A500001210420FFF73AFA01210A48FFF7ACFC04
:101A6000094840F65F11048040F2DE30FFF75CFC6D
:101A70000020FFF787FC07B030BD000000080140E0
:101A80000038014000080040B800002021F000426A
:101A9000A2F16052B2F5801F01F0004328BFD2F1DD
:101AA0007F6C0BD95FEA001C43EAC20242EB507024
:101AB00018BF704728BF20F001007047B2F5801FA3
:101AC000BCBF184670474FEA410C1CF5001F02D2FC
:101AD000084600F00EBD70B500F01DFA0000008948
:101AE000FFF7F6BF4FF00040A0F580007047000000
:101AF00010B591EA030F48BF83F0004300F16882FC
:101B0000841A71EB030C05D2121943EB0C03001B72
:101B100061EB0C01DFF824E14FEA1154A4EB135CF4
:101B20001EEA430F18BF9EEA445F73D023EA0E03F8
:101B3000DCF1200E21EA045143F4801332D322FA5F
:101B40000CFE10EB0E0023FA0CFE41EB0E01CCF163
:101B5000200E03FA0EFE10EB0E0051F10001B1F55C
:101B6000801FCCF1200E32D201EB045112FA0EF29A
:101B7000BDE8104058BF7047401C38BF5FEA4202C2
:101B800018BF7047002814BF20F0010041F1000188
:101B90004FEA410313F5001F38BF7047A1F1C04160
:101BA00000F007BA012A43EB0302ACF1200CDCF190
:101BB0001F0E32BF4FF0000E23FA0CF310EB0300A0
:101BC00041EB0451B4EB115FD0D0A1EB045101F50E
:101BD000801149085FEA300001EB04510ED350F147
:101BE000000038BF12FA0EFE08D1BDE81040C9E768
:101BF000401C38BF5FEA4202CAD1C3E7BDE81040CB
:101C00004FEA410313F5001F38BF7047A1F1C041EF
:101C100000F0CFB99EEA445F08D011EA5E0FBDE83C
:101C2000104004BF01F0004100207047BDE81040A3
:101C300070B500F070F900BF64FBBE3E0000E0FF2D
:101C40002DE9C04130B4DFF8A0C23CEA111418BF3E
:101C50003CEA131400F0EC8081EA03051CEA11143D
:101C600044EAD57418BF1CEA131500F0C780A4EB32
:101C700005044FF0004545EAC12145EAC32341EA86
:101C8000505143EA525304F17F74994204F50034F1
:101C90004FEAC0204FEAC22208BF904200F09C8069
:101CA0004FEA13650FF24016765D4FEA134506FBC7
:101CB00005F7C7F1807706FB07F74FEAD737A7FB91
:101CC00003687642C8F58038A7FB06CE38BFA8F176
:101CD000010807FB08E64FF0000EA6FB028CE6FBAE
:101CE00003CEDCF1000CCEF1004E38BFAEF1010E98
:101CF000A6FB0C584FF000074FF00005E6FB0E87DF
:101D0000A1FB08C6A0FB07CE16EB0E0645F10005A9
:101D1000E1FB076515F1E04E7EBFA4F580345FEA74
:101D200046066D4116F1800745F100054FEA172779
:101D30004FEA066647EA0567A6F1DE46B6F1805F20
:101D40004FEA15251FD9384624F0010C05EBC47164
:101D5000BCF1FE6F01EB0C1102D8F0BCBDE80081B4
:101D600024425CBF01F5801E9EEAC47F02D4F0BC11
:101D7000BDE80081244238D4F0BCA1F1C041BDE8E7
:101D8000004100F016B94FEAD22242EA43524FEA2C
:101D9000D323A7FB02864FEAD02040EA415007FB3D
:101DA00003661EEA0E0F4FEAD12105FB026658BFFB
:101DB000A6EB0056B6EB00564FEA520E4EEAC37E33
:101DC00018EB0E0E56EB530EBDD518EB02085E4114
:101DD0007F1C55F10005B6E74FF480154FF0000762
:101DE0004FF000064FF00008ADE7F0BC4FF00000E8
:101DF00001F1C04101F00041BDE8008111EA0C1F72
:101E00000CEA131500D00CE013EA0C1F00F025803B
:101E10004FF00000F0BC81EA030101F00041BDE891
:101E20000081F0BCBDE8004181EA030100F0C1B8C7
:101E3000F0BCBDE8004170B500F06DF8097EFC3ED5
:101E400000F007B881EA03014FF0000001F0004103
:101E5000704781EA030100F0ACB8F0BCBDE8004176
:101E60004FF0000021497047FFFDFBF9F7F5F4F250
:101E7000F0EEEDEBE9E8E6E4E3E1E0DEDDDBDAD825
:101E8000D7D5D4D3D1D0CFCDCCCBCAC8C7C6C5C483
:101E9000C2C1C0BFBEBDBCBBBAB9B8B7B6B5B4B39A
:101EA000B2B1B0AFAEADACABAAA9A8A8A7A6A5A485
:101EB000A3A3A2A1A09F9F9E9D9C9C9B9A99999849
:101EC0009797969595949393929191908F8F8E8EEC
:101ED0008D8C8C8B8B8A8989888887878685858479
:101EE00084838382828181800000FF070000F87F65
:101EF000B0FA80F310FA03F10AD0C3F11D0303F521
:101F000080634FEA41504FEA035202EBD121704700
:101F10004FF0000070470EF1020E2EF0030E5EF837
:101F2000046B364205D4012A43EB030515F5001F67
:101F300012D8012841EB010C1CF5001F0CD80ED162
:101F40004FEAD17C15F5001F0CEB4C0C0CF1020C88
:101F500008BF4CEBD37C04E04FF0080C01E04FEAE3
:101F6000D37C0CEB4C0526FA05F606F00706B6F115
:101F7000040C06D20EEB860CBDE870404CF0010C50
:101F80006047DFE80CF0090B02024FF000414FF010
:101F90000000A1F5002170BD19461046012851EB43
:101FA000010418BFD4F5001484BF002001F00041E3
:101FB00070BD0808A0F500114FEA3101704700001C
:101FC00010B591EA030F48BF83F000433FF598AD89
:101FD000841A71EB030C07D212198CF0004C43EBFE
:101FE0000C03001B61EB0C01DFF8A4E14FEA115474
:101FF000A4EB135C1EEA430F18BF9EEA445F00F097
:10200000B08023EA6E03524221EA0451C3EB6E030F
:1020100038BF5B1EDCF1200E25D322FA0CFE10EB3C
:102020000E0043FA0CFE41EB0E01CCF1200E03FA38
:102030000EFE10EB0E0051F10001CCF1200E29D460
:1020400012FA0EF201EB0451BDE8104058BF704780
:10205000401C1CBFB2F1004F704700280CBF491C48
:1020600020F00100704712EB020E43EB030218BF91
:102070004FF0010E4EEA4202ACF1200CDCF11E0ED4
:1020800054D943FA0CFE10EB0E0051F1FF31CCF1A4
:102090001E0ED5D50EF1010E12FA0EFE404141EB97
:1020A000010101EB445C5FEA5C5C10D910EBDE706F
:1020B00001EB045138BFBEF1004FBDE8104018BF1E
:1020C000704700280CBF491C20F00100704730D237
:1020D0004FEAD42C11F5001124F400641BD0B1FA9E
:1020E00081F20B3AA41AA41ED2F12003914030FAD7
:1020F00003F31943904001EBCC71002C01EB045128
:10210000BDE81040A8BF704701F1C0414FF000008A
:1021100001F000417047B0FA80F310FA03F100D1EA
:1021200010BDE41A173C4805C90AE4E701EB045165
:1021300010BD491001EB0451BDE810404FEA3000DA
:1021400002E04FF0000170474A0008BF0042F8D09B
:10215000B2F5001F28BF704701F000414FF00000AA
:1021600070479EEA445F07D011EA5E0FBDE8104059
:1021700004BF002100207047BDE8104070B5FFF794
:10218000CAFE00BF40DFF63E83F0004110467047B4
:102190000000E0FF014800F0B1B900BF0000C07FBF
:1021A0004FF47F0C1CEAD0121EBF1CEAD11392EA36
:1021B0000C0F93EA0C0F00F0858090EA010F48BFE6
:1021C00042F4807240F4000C41F400002CF07F4196
:1021D00020F07F4000B58142A2EB03020FF2081C01
:1021E000ACEB504EC0F100009EF800E04FEA4E0EFE
:1021F00000FB0EFC38BF49004FEA2C1C02F5FA0226
:102200000CFB0EF34FEACE1E4FEA112C4FEAC12110
:102210000EEB635E42EB22420EFB0CFC4FEA1C53BA
:1022200000FB03114FEA112C4FEA01310EFB0CFCAD
:102230004FEADC4C00FB0C11C14228BF09184CEBE3
:1022400003335DF804EB10EB410143EBC250B2F5F0
:102250007C0F38BF704729D512F0F00F1CBF00F17A
:10226000C04000F0004070470081828384858687EB
:1022700088898B8C8D8E8F919293959697999A9C45
:102280009D9FA0A2A3A5A7A8AAACAEB0B2B3B5B7B4
:10229000B9BCBEC0C2C5C7C9CCCED1D4D7D9DCDF8A
:1022A000E2E6E9ECF0F3F7FAFE0000004FEA400C3A
:1022B0000CF1807CBCF17E4F28BF7047B0F1C0406C
:1022C00000F017B990EA010F0CEAD11348BF42F4AD
:1022D0008072624538BF634507D213F47F0F16D072
:1022E00080EA010000F00040704710B500F0BBF834
:1022F000097EFC3E00F005B880EA010000F00040D5
:10230000704780EA010000F0004000F0F2B812F4DB
:102310007F0F04BF0248704780EA010000F0E9B86F
:102320000000C07FC10DD1F19E0206DB4FEA002301
:1023300043F0004323FA02F07047004207D54FEA0A
:102340004001B1F1FE4F02D24FF00000704710B5CE
:1023500000F089F849922480002070476FEA20003D
:10236000704700004FF47F0C1CEAD0121EBF1CEA1D
:10237000D11392EA0C0F93EA0C0F00F0478090EA19
:10238000010F48BF42F480724FF0004C4CEA00202D
:102390004CEA012102EB0302A0FB0113A2F50002AB
:1023A000002918BF43F001035B0028BF4FEA330345
:1023B00042EB22425FEA132C4CEBC2502EBFBCEB27
:1023C000436FB2F57C0F70474FEA036CBCF1004FCE
:1023D00008BF20F00100B2F57C0F38BF70470BD565
:1023E00082F0FF0212F5803FC8BF704700F1C04085
:1023F000D8BF00F00040704700F5000C5FEA4C0CBD
:1024000048BF7047B0F1C04000F073B890EA010FC8
:102410000CEAD11348BF42F48072624538BF63456D
:1024200004D280EA010000F00040704710B500F0CF
:102430001AF800BF8900013E00F007B800F009B8A3
:102440005FEA410C5FEA1C6C08D080EA010000F0F2
:1024500050B85FEA400C5FEA1C6CF6D14FF00040C8
:10246000A0F5800070470EF1020E2EF0030E5EF80C
:10247000044B244204D44FEA4102B2F17F4F11D8F9
:102480004FEA4003B3F17F4F0CD80ED14FEAD07C16
:10249000B2F17F4F0CEB4C0C0CF1020C08BF4CEB73
:1024A000D17C04E04FF0080C01E04FEAD17C0CEB4A
:1024B0004C0324FA03F404F00704B4F1040C06D22C
:1024C0000EEB840CBDE810404CF0010C6047DFE8D7
:1024D0000CF0070802024FF00040A0F5800010BD8C
:1024E0000846420018BFD2F1807288BF00F0004059
:1024F00010BDFF2141EAD050C00570470CF00F031A
:10250000092B08BF082000F051800A2B0BD0082BA4
:1025100018BF704708BF1CF0400F0AD04FF00000F2
:102520004FF0000170471CF0400F18BF4FF0004003
:1025300070471CF0100F08D020F0704300F07F426D
:1025400042EAD3014FEA4370704700F0604021F047
:102550007F4242EA000201F07F4040EA7270704719
:102560004FF0FF0212EAD0521CBF92F0FF038B42E1
:10257000C2BFD14200EBC1507047002A0AD0002BE5
:102580000BD0002900F00040A4BF40F0FE4040F412
:102590000000704700F00040704743024FF00B0C02
:1025A00018BF4CF0806C7FF4F5AD70471CF4801FB1
:1025B00011D01CF4E02F03D06FEACC3149007047F2
:1025C0004FF04050EFF3008222F0704242EA0002E6
:1025D00082F3008870474FF000007047FC25000828
:1025E00000000020BC00000028010008B8260008F8
:1025F000BC000020F40700004401000800366E0112
:1026000000000000000000000102030406070809A2
:10261000000000000000000000000000494E495486
:102620000D3A3231630D0A3A3431650D0A3A3631CA
:10263000670D0A5A45524F320D3A310000310D0AEA
:102640003A330190C40D0A3A350000350D0A434172
:102650004C4220343030300D0204060800000000E7
:102660000102030401020304060708090000000038
:10267000000000000000000000000000000000005A
:10268000000000000000000000001E1C1A1816F5D3
:1026900060D3F266B6B7E0F7F60000000178DA80A2
:1026A0009A14A80200000000000E12B216B01C001E
:0826B000000000000000000022
:04000005080000ED02
:00000001FF
