:020000040800F2
:100000007007002089010008910100089301000891
:100010009501000897010008990100080000000000
:100020000000000000000000000000009B0100082C
:100030009D010008000000009F010008A1010008C8
:10004000A3010008A3010008A3010008A301000800
:10005000A3010008A3010008C5030008A3010008CC
:10006000A3010008A3010008A3010008A3010008E0
:10007000A3010008A3010008A3010008A3010008D0
:10008000A3010008A3010008A3010008A3010008C0
:10009000A3010008A3010008A3010008A3010008B0
:1000A000A3010008A3010008A3010008A3010008A0
:1000B000D50A0008A301000800000000A301000801
:1000C000A30100080000000000000000A3010008D8
:1000D00000000000F90D0008A30100080000000066
:1000E000A3010008A3010008A301000800F002F822
:1000F00000F03AF80AA090E8000C82448344AAF188
:100100000107DA4501D100F02FF8AFF2090EBAE885
:100110000F0013F0010F18BFFB1A43F0010318473B
:10012000DC140000FC140000103A24BF78C878C129
:10013000FAD8520724BF30C830C144BF04680C60ED
:10014000704700000023002400250026103A28BF35
:1001500078C1FBD8520728BF30C148BF0B60704739
:100160001FB51FBD10B510BD00F05AF81146FFF7BE
:10017000F7FF00F025FF00F078F803B4FFF7F2FF77
:1001800003BC00F0ACFE0000094880470948004766
:10019000FEE7FEE7FEE7FEE7FEE7FEE7FEE7FEE737
:1001A000FEE7FEE704480549054A064B7047000094
:1001B000090A0008ED000008700100207007002007
:1001C000700300207003002070474FF0000200B55C
:1001D000134694469646203922BFA0E80C50A0E86A
:1001E0000C50B1F12001BFF4F7AF090728BFA0E818
:1001F0000C5048BF0CC05DF804EB890028BF40F8E4
:10020000042B08BF704748BF20F8022B11F0804F25
:1002100018BF00F8012B7047704770477047704750
:10022000754600F029F8AE4605006946534620F0B1
:100230000700854618B020B5FFF7B4FFBDE82040A1
:100240004FF000064FF000074FF000084FF0000B92
:1002500021F00701AC46ACE8C009ACE8C009ACE845
:10026000C009ACE8C0098D4670470446AFF3008072
:100270002046FFF782FF0000004870471001002071
:1002800039B1084A1268012383401A43054B1A60AA
:1002900006E0044A1268012383409A43014B1A6026
:1002A000704700000074004000B585B001210420B3
:1002B00000F016FB0121480700F0F2FA1020ADF81B
:1002C000100003208DF8120000208DF8130004A9FF
:1002D000084800F09BF83C2000900020019002901C
:1002E0000390694600F008F801210020FFF7C8FFDD
:1002F00005B000BD0008014030B5002200230A4CC3
:10030000226840F6FE748440A243D1E900452C43A4
:100310008D682C43CD6844EA050303FA00F42243B8
:10032000014C226030BD00000074004008B500227E
:100330000092054A009200F10802009B1A440092C4
:10034000009A116008BD00000074004010B541B172
:10035000084A126804090123A3401A43054B1A6096
:1003600007E0044A126804090123A3409A43014BA1
:100370001A6010BD047400402DE9F05F04464FF090
:100380008B41204601F06EF8834601F01FF80746C6
:100390004FF066320A4B00F06DFE054600F038FE65
:1003A0008246504601F03EF81FFA80F94946002087
:1003B000FFF7BCFF01210020FFF7C8FFBDE8F09F59
:1003C00066660A4010B5012000F00CF810B101205B
:1003D00000F002F810BD00000149086070470000FD
:1003E00014040140014600200022074B1B6803EA69
:1003F0000102054B14331B680B4013B10AB10120F5
:1004000000E0002070470000000401402DE9F041A9
:10041000024600250026002000230024002791F832
:1004200003C00CF00F0591F803C00CF0100CBCF1E8
:10043000000F03D091F802C04CEA050591F800C006
:10044000BCF1000F31D0146800202BE04FF0010CFC
:100450000CFA00F3B1F800C00CEA03069E4220D16A
:1004600083004FF00F0C0CFA03F7BC4305FA03FCB2
:100470004CEA040491F803C0BCF1280F06D14FF0F8
:10048000010C0CFA00FCC2F814C00AE091F803C099
:10049000BCF1480F05D14FF0010C0CFA00FCC2F87A
:1004A00010C0401C0828D1D31460B1F800C0BCF1C2
:1004B000FF0F34DD546800202EE000F1080C4FF0EF
:1004C000010808FA0CF3B1F800C00CEA03069E42DA
:1004D00021D183004FF00F0C0CFA03F7BC4305FA4F
:1004E00003FC4CEA040491F803C0BCF1280F05D1C9
:1004F00000F1080C08FA0CF8C2F8148091F803C057
:10050000BCF1480F07D100F1080C4FF0010808FAC0
:100510000CF8C2F81080401C0828CED35460BDE807
:10052000F08101617047000008B50121082000F04A
:10053000D7F9C020ADF8000010208DF8030003208B
:100540008DF8020069460448FFF760FFC0210248A9
:10055000FFF7E7FF08BD0000000C014070B504463E
:100560001848006820F07040164908600846006886
:1005700040F04050086000201349086000251EE04C
:10058000E00920B101201049091D086003E00020A6
:100590000D49091D08606006040E022000F0EAFC07
:1005A000012009490860022000F0E4FC002007490E
:1005B000C1F89801022000F0DDFC681CC5B2082DCE
:1005C000DEDB70BD000C0140988121420080214299
:1005D00010B50F48006820F070400D4908600846CB
:1005E000006840F04050086001200A4908600A494C
:1005F000C1F89801042000F0BDFC00200549086006
:10060000042000F0B7FC00200349C1F8980110BD98
:10061000000C01409C8121420080214210B50F480E
:10062000006820F070400D4908600846006840F0FE
:100630004050086000200A4908600A49C1F89C013E
:10064000042000F097FC0120054908600549C1F825
:100650009C01042000F08EFC10BD0000000C014045
:10066000988121420080214210B50024144800687E
:1006700020F07040124908600846006840F00040D1
:10068000086001200F49086000F074FC01200E4949
:10069000C1F8980100F06EFC07E0601CC4B2FA2CAF
:1006A00003DDFFF7BBFF012010BD0648803800685E
:1006B0000028F2D10349091F086000BFF4E70000D9
:1006C000000C01409C8121420080214210B586B07F
:1006D00018216846FFF779FD002404E0FF200DF89B
:1006E0000400601CC4B2142CF8DB142269460020FC
:1006F00000F082F806B010BD00B587B0182101A83F
:10070000FFF763FD142201A9002000F075F807B07F
:1007100000BD000010B50B220249002000F06CF86B
:1007200010BD00002E00002008B50121082000F0B7
:10073000D7F84FF49070ADF8000010208DF803004A
:1007400003208DF8020069460648FFF75FFE4FF46C
:1007500080710448FFF7E5FE20210248FFF7E1FE23
:1007600008BD0000000C014010B54FF4A06000F07F
:1007700039F810BD70B5002100230F22C47804B3EE
:10078000154C246804F4E064C4F5E064210AC1F166
:100790000403CA40447804FA03F1847814402143E6
:1007A00009010E4C0678A155047804F01F050124B8
:1007B000AC4005786D11AD0005F1E025C5F80041AC
:1007C00009E0047804F01F050124AC40044D0678CC
:1007D000761145F8264070BD0CED00E000E400E025
:1007E00080E100E002490143024A116070470000C5
:1007F0000000FA050CED00E070B504460D46164603
:10080000602000F01AF804F03F04204632462946E2
:1008100000F024F870BD70B505460C4605F01F00C9
:1008200040F04005284600F008F804F0070040F0CA
:100830007004204600F001F870BD10B50446FFF7C3
:10084000C7FE7020FFF78AFEFFF70EFF2046FFF776
:1008500085FEFFF709FFFFF7E1FE10BD2DE9F0412E
:1008600007460C461546FFF7B3FE7020FFF776FEED
:10087000FFF7FAFE3846FFF771FEFFF7F5FE002698
:1008800007E02078FFF76AFEFFF7EEFE641C701C9D
:10089000C6B2AE42F5DBFFF7C1FEBDE8F081000055
:1008A00029B1064AD2690243044BDA6104E0034AE3
:1008B000D2698243014BDA617047000000100240A8
:1008C00029B1064A12690243044B1A6104E0034A43
:1008D00012698243014B1A61704700000010024008
:1008E00029B1064A92690243044B9A6104E0034A23
:1008F00092698243014B9A617047000000100240E8
:1009000029B1064AD2680243044BDA6004E0034A84
:10091000D2688243014BDA60704700000010024049
:1009200010B500F001F810BD0CB50020019000904A
:100930002A48006840F480302849086000BF2748F2
:10094000006800F4003000900198401C019000986D
:1009500018B90198B0F5A06FF1D12048006800F4F3
:10096000003010B10120009001E0002000900098BC
:10097000012831D119484068184948600846406844
:1009800048600846406848600846406820F47C108B
:1009900048600846406840F498104860084600687F
:1009A00040F08070086000BF0C48006800F00070E4
:1009B0000028F9D00948406820F003000749486042
:1009C0000846406840F00200486000BF03484068A5
:1009D00000F00C000828F9D10CBD00000010024006
:1009E000042808D14FF0E021096941F004014FF0DB
:1009F000E022116107E04FF0E021096921F00401D4
:100A00004FF0E0221161704710B51448006840F0C3
:100A100001001249086008464068114908400F4922
:100A20004860084600680F4908400C4908600846BD
:100A3000006820F4802008600846406820F4FE002A
:100A400048604FF41F0088600020C862FFF768FF0D
:100A50004FF000600449086010BD00000010024023
:100A60000000FFF8FFFFF6FE08ED00E00EB50121E3
:100A70000846FFF715FF4FF0804000F05DF842F2A6
:100A80001070ADF804004720ADF800000020ADF86C
:100A9000020069464FF0804000F05CF901218807B0
:100AA00000F038F801221146900700F04AF90121C0
:100AB000880700F035F801210846FFF7F1FE012113
:100AC0000420FFF7EDFE0121014800F029F80EBDDA
:100AD0000008004010B50121880700F021F918B185
:100AE0000121880700F019F810BD08B54FF4A06087
:100AF000FFF778FE1C208DF8000000208DF8010023
:100B000003208DF8020001208DF803006846FFF7EE
:100B100031FE08BDCA4302827047CA430282704751
:100B200021B1028842F00102028004E002884FF6FF
:100B3000FE731A400280704710B50446684884422C
:100B400008D10121C014FFF7DBFE0021E014FFF7FC
:100B5000D7FEC4E0B4F1804F08D101210846FFF769
:100B6000AFFE00210120FFF7ABFEB8E05D488442F4
:100B700008D101210220FFF7A3FE00210220FFF788
:100B80009FFEACE05848844208D101210420FFF7C1
:100B900097FE00210420FFF793FEA0E05348844213
:100BA00008D101210820FFF78BFE00210820FFF764
:100BB00087FE94E04E48844208D101211020FFF7BF
:100BC0007FFE00211020FFF77BFE88E04948844229
:100BD00008D101212020FFF773FE00212020FFF71C
:100BE0006FFE7CE04448844208D101214014FFF7A5
:100BF00087FE00216014FFF783FE70E03F488442C7
:100C000009D10121C804FFF77BFE00214FF4002029
:100C1000FFF776FE63E03A48844209D101210805D6
:100C2000FFF76EFE00214FF48010FFF769FE56E0DB
:100C30003448844209D101214805FFF761FE0021B3
:100C40004FF40010FFF75CFE49E02F48844208D1C2
:100C500001214020FFF734FE00214020FFF730FE45
:100C60003DE02A48844208D101218020FFF728FE78
:100C700000218020FFF724FE31E02548844208D17E
:100C800001218015FFF71CFE0021A015FFF718FEBB
:100C900025E02048844209D101210804FFF730FEF5
:100CA00000214FF48030FFF72BFE18E01A488442F1
:100CB00009D101214804FFF723FE00214FF4003041
:100CC000FFF71EFE0BE01548844208D1012188047D
:100CD000FFF716FE00214FF48020FFF711FE10BD34
:100CE000002C01400004004000080040000C0040BF
:100CF000001000400014004000340140004C01404E
:100D0000005001400054014000180040001C004009
:100D100000200040004001400044014000480140E4
:100D200030B50246002000230024158A05EA01039D
:100D3000958905EA010413B10CB1012000E00020FF
:100D400030BD1AB183890B43838102E083898B43D1
:100D500083817047002202881D4B98420ED01D4BA4
:100D600098420BD0B0F1804F08D01B4B984205D071
:100D70001A4B984202D01A4B984204D14FF68F7307
:100D80001A404B881A43174B984207D0164B98428B
:100D900004D04FF6FF431A40CB881A4302808B8859
:100DA00083850B8803850A4B98420BD0094B9842E8
:100DB00008D00E4B984205D00D4B984202D00D4BF7
:100DC000984201D10B7A0386012383827047000089
:100DD000002C0140003401400004004000080040A5
:100DE000000C004000100040001400400040014092
:100DF000004401400048014010B540F225511D4813
:100E000000F03EF810B31B4800F064F8C4B21A4872
:100E1000008800F40040C8B91748008800F48040FA
:100E200060B10A2C03D000201349088020E012484A
:100E3000008840F400401049088019E00D2C06D1CC
:100E40000D48008840F480400B49088010E00A48B3
:100E50000088C0F30D0009490C5407480088401C65
:100E60000549088008460088C72801DD0020088061
:100E700010BD000000380140440000204800002060
:100E800070B50246002400230025002040F66A16B3
:100E9000B14200D100BFC1F3421501F01F0301268A
:100EA00006FA03F3012D02D19689334006E0022DA4
:100EB00002D1168A334001E0968A33400C12012693
:100EC00006FA04F41688344013B10CB1012000E096
:100ED000002070BD01468888C0F30800704700BF3D
:100EE0007047000010B56FF00400FFF779FD0A4865
:100EF00000680A49B0FBF1F009490870084600781B
:100F000000EB4001C1EBC0104FF6FF7101EAC000D9
:100F10000449088010BD00000000002000127A0083
:100F20003A0000203C0000200146114A12884A4342
:100F30004FF0E0235A6100229A611A46126942F08A
:100F400001021A6100BF4FF0E022106900F00102B7
:100F50001AB100F48032002AF5D04FF0E022126975
:100F600022F001024FF0E0231A6100229A617047DB
:100F70003C0000200146114A12784A434FF0E0231A
:100F80005A6100229A611A46126942F001021A61FE
:100F900000BF4FF0E022106900F001021AB100F426
:100FA0008032002AF5D04FF0E022126922F00102CF
:100FB0004FF0E0231A6100229A6170473A00002046
:100FC00000BFFFF78FFFFFF7CFFBFFF78EFDFFF7A7
:100FD0004DFDFFF7A9FBFFF7A7FAFFF765F9002121
:100FE0000820FFF718FC4FF49670FFF79DFFFFF7FE
:100FF0006DFB4FF47A70FFF797FFFFF77DFBFFF76C
:1010000089FB4FF07F50FFF7B7F900BFFEE7000004
:1010100021F00042A2F16052B2F5801F01F00043BE
:1010200028BFD2F17F6C0BD95FEA001C43EAC202F1
:1010300042EB507018BF704728BF20F00100704786
:10104000B2F5801FBCBF184670474FEA410C1CF533
:10105000001F02D2084600F0CCBA70B500F062F969
:1010600000000089FFF7F6BF4FF00040A0F58000B8
:10107000704700002DE9C04130B4DFF8A0C23CEA5F
:10108000111418BF3CEA131400F0EC8081EA030548
:101090001CEA111444EAD57418BF1CEA131500F0B9
:1010A000C780A4EB05044FF0004545EAC12145EA9D
:1010B000C32341EA505143EA525304F17F749942E9
:1010C00004F500344FEAC0204FEAC22208BF904224
:1010D00000F09C804FEA13650FF24016765D4FEAF0
:1010E000134506FB05F7C7F1807706FB07F74FEAC4
:1010F000D737A7FB03687642C8F58038A7FB06CE32
:1011000038BFA8F1010807FB08E64FF0000EA6FB68
:10111000028CE6FB03CEDCF1000CCEF1004E38BFB2
:10112000AEF1010EA6FB0C584FF000074FF0000582
:10113000E6FB0E87A1FB08C6A0FB07CE16EB0E064A
:1011400045F10005E1FB076515F1E04E7EBFA4F512
:1011500080345FEA46066D4116F1800745F10005CF
:101160004FEA17274FEA066647EA0567A6F1DE460B
:10117000B6F1805F4FEA15251FD9384624F0010CDF
:1011800005EBC471BCF1FE6F01EB0C1102D8F0BC91
:10119000BDE8008124425CBF01F5801E9EEAC47F49
:1011A00002D4F0BCBDE80081244238D4F0BCA1F1E7
:1011B000C041BDE8004100F003B94FEAD22242EA43
:1011C00043524FEAD323A7FB02864FEAD02040EADE
:1011D000415007FB03661EEA0E0F4FEAD12105FBC3
:1011E000026658BFA6EB0056B6EB00564FEA520E09
:1011F0004EEAC37E18EB0E0E56EB530EBDD518EB20
:1012000002085E417F1C55F10005B6E74FF48015DA
:101210004FF000074FF000064FF00008ADE7F0BCBC
:101220004FF0000001F1C04101F00041BDE8008134
:1012300011EA0C1F0CEA131500D00CE013EA0C1F86
:1012400000F025804FF00000F0BC81EA030101F0BE
:101250000041BDE80081F0BCBDE8004181EA030126
:1012600000F0AEB8F0BCBDE8004170B500F05AF82F
:10127000097EFC3E00F007B881EA03014FF0000050
:1012800001F00041704781EA030100F099B8F0BC19
:10129000BDE800414FF0000021497047FFFDFBF918
:1012A000F7F5F4F2F0EEEDEBE9E8E6E4E3E1E0DE99
:1012B000DDDBDAD8D7D5D4D3D1D0CFCDCCCBCAC80B
:1012C000C7C6C5C4C2C1C0BFBEBDBCBBBAB9B8B732
:1012D000B6B5B4B3B2B1B0AFAEADACABAAA9A8A825
:1012E000A7A6A5A4A3A3A2A1A09F9F9E9D9C9C9BF3
:1012F0009A9999989797969595949393929191909E
:101300008F8F8E8E8D8C8C8B8B8A8989888887872E
:101310008685858484838382828181800000FF07A3
:101320000000F87F0EF1020E2EF0030E5EF8046B43
:10133000364205D4012A43EB030515F5001F12D8E8
:10134000012841EB010C1CF5001F0CD80ED14FEA0F
:10135000D17C15F5001F0CEB4C0C0CF1020C08BFF6
:101360004CEBD37C04E04FF0080C01E04FEAD37C57
:101370000CEB4C0526FA05F606F00706B6F1040C50
:1013800006D20EEB860CBDE870404CF0010C6047B5
:10139000DFE80CF0090B02024FF000414FF00000B3
:1013A000A1F5002170BD19461046012851EB01043A
:1013B00018BFD4F5001484BF002001F0004170BDB7
:1013C0000808A0F500114FEA3101704743004FEAC9
:1013D000D30C4FEA3C0C43401FBF40070CF1605157
:1013E00013F0FE4F70471CF0006F03D100200CF08B
:1013F000004170470CF0004343EA507010B540EADA
:10140000CC0000F0B0F800BF000000924FEA0001ED
:10141000FFF7D6BF4FF000414FF00000A1F50021CB
:1014200070470000C10DD1F19E0206DB4FEA002398
:1014300043F0004323FA02F07047004207D54FEA19
:101440004001B1F1FE4F02D24FF00000704710B5DD
:1014500000F089F849922480002070476FEA20004C
:10146000704700004FF47F0C1CEAD0121EBF1CEA2C
:10147000D11392EA0C0F93EA0C0F00F0478090EA28
:10148000010F48BF42F480724FF0004C4CEA00203C
:101490004CEA012102EB0302A0FB0113A2F50002BA
:1014A000002918BF43F001035B0028BF4FEA330354
:1014B00042EB22425FEA132C4CEBC2502EBFBCEB36
:1014C000436FB2F57C0F70474FEA036CBCF1004FDD
:1014D00008BF20F00100B2F57C0F38BF70470BD574
:1014E00082F0FF0212F5803FC8BF704700F1C04094
:1014F000D8BF00F00040704700F5000C5FEA4C0CCC
:1015000048BF7047B0F1C04000F073B890EA010FD7
:101510000CEAD11348BF42F48072624538BF63457C
:1015200004D280EA010000F00040704710B500F0DE
:101530001AF800BF8900013E00F007B800F009B8B2
:101540005FEA410C5FEA1C6C08D080EA010000F001
:1015500050B85FEA400C5FEA1C6CF6D14FF00040D7
:10156000A0F5800070470EF1020E2EF0030E5EF81B
:10157000044B244204D44FEA4102B2F17F4F11D808
:101580004FEA4003B3F17F4F0CD80ED14FEAD07C25
:10159000B2F17F4F0CEB4C0C0CF1020C08BF4CEB82
:1015A000D17C04E04FF0080C01E04FEAD17C0CEB59
:1015B0004C0324FA03F404F00704B4F1040C06D23B
:1015C0000EEB840CBDE810404CF0010C6047DFE8E6
:1015D0000CF0070802024FF00040A0F5800010BD9B
:1015E0000846420018BFD2F1807288BF00F0004068
:1015F00010BDFF2141EAD050C00570471C160008FD
:1016000000000020480000002801000864160008BF
:1016100048000020280700004401000800366E0141
:101620000000000000000000010203040607080992
:101630001E1C1A1816F560D3F266B6B7E0F7F6006E
:1016400000000178DA809A14A80200000000000E61
:1016500012B216B01C0000000000000000000000E4
:041660000000000086
:04000005080000ED02
:00000001FF
